S01000005350495F546573742E7372656329
S21440000038064020E5014000690240006902400091
S214400010690240006902400069024000000000009A
S21440002000000000000000000000000069024000E0
S214400030690240000000000069024000690240007A
S21440004069024000690240006902400069024000BF
S21440005069024000690240006902400069024000AF
S214400060690240000000000069024000690240004A
S214400070690240006902400069024000690240008F
S214400080690240006902400069024000690240007F
S214400090690240006902400069024000690240006F
S2144000A0690240006902400069024000690240005F
S2144000B0690240006902400069024000690240004F
S2144000C0690240006902400069024000690240003F
S2144000D0690240006902400069024000690240002F
S2144000E0690240006902400069024000690240001F
S2144000F0690240006902400069024000690240000F
S21440010069024000690240006902400069024000FE
S21440011069024000000000000000000000000000EF
S21440012069024000690240006902400069024000DE
S21440013069024000690240006902400069024000CE
S21440014069024000690240006902400069024000BE
S21440015069024000690240006902400069024000AE
S214400160690240006902400010B5054C237833B957
S214400170044B13B10448AFF300800123237010BD35
S2144001800000402000000000F82240000C4B43B125
S2144001900C480D4910B5AFF300800C48036823B9EE
S2144001A010BD0A48036833B97047094B002BF7D097
S2144001B0BDE810401847064B002BF5D0184700BF47
S2144001C000000000F822400004004020F8224000D2
S2144001D00000000080B500AF014B984700BF80BDCF
S2144001E02D08400080B582B000AF164B7B60164BA2
S2144001F03B607A683B689A420CD007E03B681A1D21
S2144002003A607A68111D796012681A603B680F4A36
S2144002109342F3D30E4B3B6004E03B681A1D3A60B2
S21440022000221A603B680B4A9342F6D30A4B7B6027
S2144002300A4A7B6823F07F039360094B9847094B33
S2144002409847FEE7F822400000004020000040208B
S21440025000004020380040200000400000ED00E054
S214400260F12140005120400080B400AFFEE780B44A
S21440027083B000AF786039607B68D3F814213B6860
S2144002801A437B68C3F8142100BF0C37BD465DF89F
S214400290047B704780B483B000AF786039607B6879
S2144002A03A681A6000BF0C37BD465DF8047B70475D
S2144002B080B483B000AF786039607B683A685A6033
S2144002C000BF0C37BD465DF8047B704780B483B0F2
S2144002D000AF786039607B683A681A6100BF0C37B7
S2144002E0BD465DF8047B704780B483B000AF78604D
S2144002F039607B683A685A6100BF0C37BD465DF886
S214400300047B704780B483B000AF786039607B6808
S2144003103A681A6300BF0C37BD465DF8047B7047E9
S21440032080B483B000AF786039607B683A685A63BF
S21440033000BF0C37BD465DF8047B704780B485B07F
S21440034000AFF8600B467A60FB72FA7AF97AFB687F
S2144003501C3153F821107B681943FB681C3243F864
S214400360221000BF1437BD465DF8047B704780B44A
S21440037085B000AFF8600B467A60FB72FA7AF97A7D
S214400380FB681C3153F821107B68DB431940FB683F
S2144003901C3243F8221000BF1437BD465DF8047B7C
S2144003A0704780B483B000AF786039607B683A6845
S2144003B01A6100BF0C37BD465DF8047B704780B4B9
S2144003C085B000AF786039607B689B69FB60FA68EF
S2144003D03B681340FB60FB6818461437BD465DF823
S2144003E0047B704780B483B000AF786039607B6828
S2144003F03A68C3F8002100BF0C37BD465DF8047B61
S214400400704780B485B000AF786039607B68D3F8B9
S2144004100831FB60FA683B681340FB60FB6818468F
S2144004201437BD465DF8047B704780B483B000AF98
S214400430786039607B683A68C3F80C2100BF0C3797
S214400440BD465DF8047B704780B483B000AF7860EB
S2144004507B68D3F80C3118460C37BD465DF8047BF4
S214400460704780B483B000AF78607B685B6843F4C5
S21440047000427B685A6000BF0C37BD465DF8047B7F
S2144004807047000080B483B000AF0346FB71FB7931
S2144004905B021A46034B134418460C37BD465DF8BC
S2144004A0047B7047000E0E4080B584B000AF034614
S2144004B03960FB711346BB71FB7918460E4B984763
S2144004C0F860BB79002B0EDB012B02DD022B05D03A
S2144004D009E03968F868094B984709E03968F868D0
S2144004E0074B984704E0412206490020064B9847B0
S2144004F000BF1037BD4680BD85044000E90240007D
S214400500CD02400038224000AD0C400080B584B09B
S21440051000AF03463960FB711346BB71FB79184642
S214400520094B9847F860BB79002B04D03968F868C7
S214400530064B984703E03968F868054B984700BF74
S2144005401037BD4680BD00BF85044000050340000F
S2144005502103400080B584B000AF786039607B6886
S2144005605B09FB737B68DBB203F01F03BB73FB7B4B
S2144005701846334B9847B860FB7B012B16D1BB7BA4
S214400580042B0BD0BB7B052B08D0BB7B062B05D0A2
S214400590BB7B072B02D0BB7B0C2B07D1BB7B01223E
S2144005A002FA03F319462748274B98473B68B3F1AE
S2144005B0FF3F08D1BB7B012202FA03F31946B86815
S2144005C0224B984737E03B6803F00103002B09D0E5
S2144005D0BB7B012202FA03F31A460021B8681C4B83
S2144005E0984708E0BB7B012202FA03F31A46002133
S2144005F0B868184B98473B6803F00203002B09D0B5
S214400600BB7B012202FA03F31A460121B868104B5D
S214400610984708E0BB7B012202FA03F31A46012101
S214400620B8680C4B9847BB7B012202FA03F3194685
S214400630B868094B984700BF1037BD4680BD00BF1D
S21440064085044000008008406F024000950240004C
S2144006503D0340006F034000B102400080B582B0C9
S21440066000AF7860396039687868034B984700BFB8
S2144006700837BD4680BD00BF5505400080B582B0F6
S21440068000AF03460A46FB711346BB71FB795B0914
S214400690D8B2FB7903F01F03012202FA03F3BA79BA
S2144006A01946034B984700BF0837BD4680BD00BF7C
S2144006B0A904400080B582B000AF03460A46FB71ED
S2144006C01346BB71FB795B09D8B2FB7903F01F0375
S2144006D0012202FA03F3BA791946034B984700BF42
S2144006E00837BD4680BD00BF0D05400080B500AF51
S2144006F0014B984700BF80BDA10F400080B584B035
S21440070000AF78607B681F2B13D801227B6802FA03
S21440071003F319461F48204B98470346002B35D114
S21440072001227B6802FA03F319461A481B4B984786
S2144007302CE07B683F2B16D87B68203B7B600122F1
S2144007407B6802FA03F319461248154B984703464E
S214400750002B1BD101227B6802FA03F319460D4891
S214400760104B984712E07B6803F07F031946094810
S2144007700D4B984707480D4B9847F860FB6843F089
S2144007801023FB60F9680348074B984700BF1037B3
S214400790BD4680BD00060E40BF034000A303400098
S2144007A003044000E50340002B0440004904400099
S2144007B080B500AF01217420054B98470121752074
S2144007C0034B984701217620014B984700BF80BDD8
S2144007D05D06400080B500AF1520024B984700BF2D
S2144007E080BD00BFFD06400080B500AF084B98476F
S2144007F0084B9847034619460748084B9847084908
S2144008000548084B9847084B984700BF80BD00BF37
S214400810D5074000911A400020004020890940003A
S21440082000800040C1094000B107400080B500AFDD
S2144008300C4B98470B200C4B98470C480C4B984752
S214400840002123200B4B9847022123200A4B984730
S2144008504FF0FF312320094B9847094B984700BF7C
S21440086080BD00BFED064000FD06400050180E401B
S21440087063044000B50640007D0640005D0640002B
S214400880E907400080B485B000AF7860EFF310838E
S214400890FB60FA687B681A6072B6BFF35F8F00BF72
S2144008A01437BD465DF8047B704780B485B000AF12
S2144008B07860BFF35F8F7B681B68FB60FB6883F3E1
S2144008C0108800BF1437BD465DF8047B70470000B3
S2144008D090B583B000AF0346FB80074B1C68FB888F
S2144008E01846064B9847034619462046044B9847F9
S2144008F000BF0C37BD4690BD1C004020D10D4000C7
S214400900090F400090B583B000AF0346FB80074B0D
S2144009101C68FB881846064B9847034619462046EF
S214400920044B984700BF0C37BD4690BD1C00402086
S214400930E10E4000090F400080B584B000AFF8607B
S214400940B9601346FB80FB68002B04D0BB68002BC5
S21440095001D0012300E0002303F00103DBB2342280
S21440096007491846074B9847FB681B68FA88B968DA
S214400970F8689847034618461037BD4680BD00BF06
S21440098054224000AD0C400080B582B000AF786085
S21440099039607B68002B14BF01230023DBB2392269
S2144009A005491846054B98477B683A681A6000BF69
S2144009B00837BD4680BD00BF68224000AD0C4000F1
S2144009C080B584B000AF786039600023FB607B68F8
S2144009D0002B04D03B68002B01D0012300E000230D
S2144009E003F00103DBB2402210491846104B9847EB
S2144009F07B683A685A607B680433396818460D4B02
S214400A009847F860FB68002B01DAFB680AE07B68D1
S214400A104FF400429A827B68074A1A617B68074A0D
S214400A20DA60002318461037BD4680BD6822400075
S214400A30AD0C400025164000510B4000A90B40006D
S214400A4080B582B000AF78607B68002B14BF01236E
S214400A500023DBB2572206491846064B98477B6868
S214400A6004331846044B984700BF0837BD4680BD40
S214400A7068224000AD0C40000517400080B582B0AB
S214400A8000AF786039607B68002B14BF01230023D9
S214400A90DBB2632207491846074B98477B68043306
S214400AA039681846054B9847034618460837BD46EA
S214400AB080BD00BF68224000AD0C4000AD1740002E
S214400AC080B582B000AF78600B46FB707B68002B29
S214400AD014BF01230023DBB2692208491846084B9D
S214400AE098477B680433FA7811461846054B984772
S214400AF0034618460837BD4680BD00BF6822400002
S214400B00AD0C40005517400080B582B000AF78600D
S214400B100B46FB707B68002B14BF01230023DBB21F
S214400B206F2208491846084B98477B680433FA7882
S214400B3011461846054B9847034618460837BD46A3
S214400B4080BD00BF68224000AD0C40000118400048
S214400B5080B588B000AFF860B9601346FB80FB688C
S214400B60002B14BF01230023DBB287220B49184613
S214400B700B4B9847FB680C3BFB61BB687B610023D3
S214400B803B61FB88BB6107F110031946F869054BCA
S214400B909847034618462037BD4680BD6822400029
S214400BA0AD0C4000010C400080B588B000AFF86046
S214400BB0B9601346FB80FB68002B14BF012300235B
S214400BC0DBB2A3220B4918460B4B9847FB680C3BFD
S214400BD0FB6100237B61BB683B61FB88BB6107F11F
S214400BE010031946F869054B9847034618462037C0
S214400BF0BD4680BD68224000AD0C4000010C400060
S214400C0080B586B000AF786039607B68002B04D032
S214400C103B68002B01D0012300E0002303F00103D2
S214400C20DBB2B3220C4918460C4B98473B681B680E
S214400C30FB603B685B683B613B689B687B617B68AD
S214400C40043307F10C0211461846054B98470346F5
S214400C5018461837BD4680BD68224000AD0C40009F
S214400C60BD19400080B582B000AF786039607B68BF
S214400C70002B04D03B68002B01D0012300E000236A
S214400C8003F00103DBB2BD2206491846064B9847DF
S214400C907B6803F10C023B681A600023184608374D
S214400CA0BD4680BD68224000AD0C400080B485B093
S214400CB000AF0346B9607A60FB73FB7B83F00103A9
S214400CC0DBB2002B00D000BE00BF1437BD465DF837
S214400CD0047B704780B483B000AF03463960FB8026
S214400CE013467B717B79053B042B52D801A252F800
S214400CF023F000BF730D4000550D4000390D4000F5
S214400D001B0D4000090D4000FB883A682949A1FBAD
S214400D100212920C02FB03F345E0FB883A68520944
S214400D202549A1FB0212D20902FB03F30933234AE9
S214400D30A2FB0323DB0836E0FB883A682049A1FB88
S214400D400212520B02FB03F363331E4AA2FB032339
S214400D505B0928E0FB883A681B49A1FB021292090E
S214400D6002FB03F303F2E733174AA2FB03239B0974
S214400D7019E0FB883A681349A1FB0212520902FBAC
S214400D8003F242F20F7313440D4AA2FB03235B0B9C
S214400D9009E0FB883A6802FB03F20C4B1344054A11
S214400DA0A2FB03239B0C18460C37BD465DF8047B1C
S214400DB0704700BF83DE1B43C55A7C0ACDCCCCCCE3
S214400DC05917B7D11F85EB51D34D62103F420F00E4
S214400DD080B582B000AF0346FB80FB8809220449F9
S214400DE01846044B9847034618460837BD4680BD0C
S214400DF000A3E111D50C400080B483B000AF034699
S214400E003960FB8013467B717B79053B042B4BD8BE
S214400E1001A252F823F000BF8D0E40007B0E40002A
S214400E20610E4000470E40002D0E4000FB883A6899
S214400E302549A1FB0212920C02FB03F34FF47A728F
S214400E4002FB03F33AE0FB883A6852091F49A1FBCC
S214400E500212D20902FB03F3642202FB03F32DE0E5
S214400E60FB883A681A49A1FB0212520B02FB03F2B6
S214400E7013469B0013445B0020E0FB883A68154904
S214400E80A1FB0212920902FB03F317E0FB883A68C3
S214400E901149A1FB0212520902FB03F309330F4A20
S214400EA0A2FB0323DB0809E0FB883A6802FB03F356
S214400EB003F2E733074AA2FB03239B0918460C3785
S214400EC0BD465DF8047B704783DE1B43C55A7C0AEB
S214400ED05917B7D1D34D62101F85EB51CDCCCCCC32
S214400EE080B582B000AF0346FB80FB8809220449E8
S214400EF01846044B9847034618460837BD4680BDFB
S214400F0000A3E111F90D400080B483B000AF7860D3
S214400F1039600139FDD800BF0C37BD465DF8047B0B
S214400F20704780B485B000AF786039607B681B68D6
S214400F30FB60FB6823F47063FB603B681B0203F4B2
S214400F407063FA681343FB607B68FA681A6000BFF8
S214400F501437BD465DF8047B7047000080B582B00C
S214400F6000AF3B1D18460B4B98470B4A0A4BD3F82D
S214400F70883043F47003C2F88830BFF34F8FBFF316
S214400F806F8F3B1D1846054B984700BF0837BD4638
S214400F9080BD00BF8508400000ED00E0AB08400083
S214400FA080B500AF044B984705210448044B98474A
S214400FB0044B984700BF80BD5D0F4000000C0E40BC
S214400FC0230F4000C912400080B483B000AF786061
S214400FD07B689B6E03F00103002B14BF01230023A4
S214400FE0DBB218460C37BD465DF8047B704780B4CC
S214400FF083B000AF78607B689B6E03F00203002BE3
S21440100014BF01230023DBB218460C37BD465DF8FB
S214401010047B704780B483B000AF78607B689B6E7B
S21440102003F00803002B14BF01230023DBB218464D
S2144010300C37BD465DF8047B704780B483B000AF84
S214401040786039607B681A6A3B681A437B681A6224
S21440105000BF0C37BD465DF8047B704780B483B054
S21440106000AF786039607B683A681A6200BF0C3718
S214401070BD465DF8047B704780B483B000AF7860AF
S2144010807B681B6A18460C37BD465DF8047B704784
S21440109080B485B000AF786039607B689B6AFB603F
S2144010A0FA68094B1340FB603B681A04074B134031
S2144010B0FA681343FB607B68FA689A6200BF14378D
S2144010C0BD465DF8047B7047FFFF00F80000FF0751
S2144010D080B483B000AF786039607B683A689A62C3
S2144010E000BF0C37BD465DF8047B704780B485B0C2
S2144010F000AF786039607B681B6BFB60FB6823F051
S2144011000303FB603B6803F00303FA681343FB608A
S2144011107B68FA681A6300BF1437BD465DF8047BE7
S214401120704780B485B000AF786039607B681B6BD1
S214401130FB60FB6823F07003FB603B681B0103F019
S2144011407003FA681343FB607B68FA681A6300BF53
S2144011501437BD465DF8047B704780B485B000AF59
S214401160786039607B681B6BFB60FB6823F44073D8
S214401170FB603B681B0203F44073FA681343FB6052
S2144011807B68FA681A6300BF1437BD465DF8047B77
S2144011907047000080B582B000AF00237B601C48DB
S2144011A01C4B9847034623F002037B607A681A4B31
S2144011B013437B6079681648184B984700BF14481D
S2144011C0174B9847034683F00103DBB2002BF6D15A
S2144011D014490F48144B9847144B7B6000210C4829
S2144011E0134B98477B6843F0005319460848114B09
S2144011F0984700BF0648104B9847034683F00103C4
S214401200DBB2002BF6D100BF0837BD4680BD00BF1D
S21440121000060E4079104000013E37005D10400049
S214401220C90F4000000037013B104000013F180046
S21440123091104000D1104000EF0F400080B500AF45
S21440124000211548154B984700BF1348144B984744
S214401250034683F00103DBB2002BF6D101210E4892
S214401260104B984700BF0C480D4B9847034683F0F9
S2144012700103DBB2002BF6D1022107480A4B984700
S21440128000BF0548064B9847034683F00103DBB290
S214401290002BF6D100BF80BD00060E402311400053
S2144012A0151040005B114000ED10400080B400AFC8
S2144012B000BFBD465DF8047B704780B400AF00BFFA
S2144012C0BD465DF8047B704780B500AF044B984739
S2144012D0044B9847044B9847044B984700BF80BD43
S2144012E0951140003D124000AD124000BB12400038
S2144012F080B483B000AF78607B689B689BB218462A
S2144013000C37BD465DF8047B704780B483B000AFB1
S21440131078607B681B6903F48033002B14BF01237D
S2144013200023DBB218460C37BD465DF8047B704799
S21440133080B485B000AF786039607B681B69FB601D
S214401340FA683B681340FB60FB6818461437BD4696
S2144013505DF8047B704780B483B000AF78607B68EC
S2144013601B6918460C37BD465DF8047B704780B451
S21440137083B000AF786039607B683A685A6000BFD7
S2144013800C37BD465DF8047B704780B487B000AF2D
S214401390F8600B467A60FB72FA7AFB680C3253F8B8
S2144013A022307B617B6923F0F0037B617B681B0105
S2144013B0DBB27A6913437B61FA7AFB680C3279694F
S2144013C043F8221000BF1C37BD465DF8047B7047CB
S2144013D080B487B000AFF8600B467A60FB72FA7A4A
S2144013E0FB680C3253F822307B617B6923F47F43E1
S2144013F07B617B681B029BB27A6913437B61FA7AF6
S214401400FB680C32796943F8221000BF1C37BD4692
S2144014105DF8047B704780B485B000AFF8600B463B
S2144014207A60FB72FA7AFB680C32796843F82210CD
S21440143000BF1437BD465DF8047B704780B483B068
S21440144000AF78600B46FB70FA787B680C3253F836
S214401450223018460C37BD465DF8047B704780B492
S21440146083B000AF786039607B683A681A6000BF26
S2144014700C37BD465DF8047B704780B483B000AF40
S214401480786039607B683A68DA6000BF0C37BD46E2
S2144014905DF8047B7047000080B582B000AF78608E
S2144014A001217868034B9847002318460837BD4605
S2144014B080BD00BF5F14400080B584B000AF786048
S2144014C00B46FB7000217868174B9847F860FB681E
S2144014D023F00303FB60FB78032B1AD801A252F8D3
S2144014E023F000BFF514400013154000FF144000E1
S2144014F009154000FB6843F00203FB600AE0FB6806
S21440150043F00303FB6005E0FB6843F00103FB6028
S21440151000E000BFFA6800217868044B9847002333
S21440152018461037BD4680BD3D1440001714400095
S21440153080B582B000AF786039603B68DBB21A464F
S21440154000217868034B9847002318460837BD4665
S21440155080BD00BFD113400080B584B000AFF860B6
S2144015600B467A60FB72FB7A1A460021F868084BF5
S2144015709847FB7A002B03D17B6801221A7002E061
S2144015807B6802221A70002318461037BD4680BD7D
S2144015908B13400080B485B000AF78607A68084B03
S2144015A013441B0CFB73FB7B052B01D1012300E08E
S2144015B0002318461437BD465DF8047B704700BFCD
S2144015C00080FFBF80B584B000AF78607B68184667
S2144015D0124B98470346BB730023FB7315E0FA7B18
S2144015E00F4913469B0013449B000B441B78BA7B61
S2144015F09A4207D1FA7B13469B0013449B00084A45
S214401600134406E0FB7B0133FB73FB7B002BE6D0E9
S214401610002318461037BD4680BD00BF95154000D4
S2144016208422400080B584B000AF786039603B6863
S21440163018462A4B9847F8607B68002B04D03B68D6
S214401640002B01D0012300E0002303F00103DBB2AE
S2144016504FF49A7222491846224B9847FB68002B53
S21440166002D16FF00C0335E038681F4B98470346AD
S214401670002B02D06FF010032CE0802138681B4B03
S21440168098477B683A681A60FB685A68184B13405C
S21440169019463868154B9847FB689A68154B1340AF
S2144016A0154A1A4311463868144B9847FB68DB685E
S2144016B01A4600213868124B9847FB681A8A7B689E
S2144016C0DA80FB68DB68DBB223F00F03DAB27B68B4
S2144016D01A71002318461037BD4680BDC515400018
S2144016E098224000AD0C40000B1340005F144000B1
S2144016F07CFFFFFE6FFFF1FF10000E006F134000EF
S2144017001714400080B582B000AF78607B68002B2D
S21440171005D07B681B68002B01D0012300E0002326
S21440172003F00103DBB24FF4B97207491846074B82
S21440173098477B681B681846054B984703461846EB
S2144017400837BD4680BD00BF98224000AD0C400023
S2144017509914400080B582B000AF78600B46FB70AD
S2144017607B68002B05D07B681B68002B01D00123CB
S21440177000E0002303F00103DBB24FF4C7720849D0
S2144017801846084B98477B681B68FA7811461846F7
S214401790054B9847034618460837BD4680BD00BFF0
S2144017A098224000AD0C4000B914400080B582B08D
S2144017B000AF786039607B68002B05D07B681B687B
S2144017C0002B01D0012300E0002303F00103DBB22D
S2144017D040F2AF1207491846074B98477B681B688C
S2144017E039681846054B9847034618460837BD469D
S2144017F080BD00BF98224000AD0C4000311540002F
S21440180080B582B000AF78600B46FB707B68002BDB
S21440181005D07B681B68002B01D0012300E0002325
S21440182003F00103DBB240F2CD1208491846084BDC
S21440183098477B6818687B681A1DFB781946054BE5
S2144018409847034618460837BD4680BD9822400054
S214401850AD0C40005915400080B582B000AF7860AE
S21440186000BF4FF400717868044B98470346002B3E
S214401870F7D000BF0837BD4680BD00BF31134000DB
S21440188080B584B000AF786039607868174B984769
S214401890034603F00103002B01D1002322E07868C1
S2144018A0134B9847F8603B685B68002B14D03B6846
S2144018B05B68591C3A685160FA68D2B21A703B6845
S2144018C01B7C012B08D93B685B68591C3A68516001
S2144018D0FA68120AD2B21A703B68DB685A1C3B6838
S2144018E0DA60012318461037BD4680BD57134000C6
S2144018F0F112400080B586B000AFF860B96013467C
S214401900FB80F8681A4B9847034603F00203002B07
S21440191001D1002328E0BB681B68002B18D0BB68A9
S2144019201B68591CBA6811601B787B61BB681B7CBE
S214401930012B0FD9BB681B681B781B021A467B69B4
S21440194013437B61BB681B685A1CBB681A6001E086
S214401950FB887B61BB689B685A1CBB689A60796948
S214401960F868044B9847012318461837BD4680BD93
S214401970571340007B14400080B582B000AF7860BB
S21440198039603B68002B14BF01230023DBB240F2D2
S214401990222208491846084B98477B6803F00803FC
S2144019A0002B02D06FF0120300E0002318460837E1
S2144019B0BD4680BD98224000AD0C400080B58AB040
S2144019C000AF786039607B681B683B6200237B62AF
S2144019D03B681B68FB603B685B683B6100237B6140
S2144019E00023BB617B681B793B77386A224B98475C
S2144019F0034683F00103DBB2002B02D06FF01303E3
S214401A0035E007F10C031946386A1C4B98470346E5
S214401A1083F00103DBB2002B0BD0BA697B699A4294
S214401A2007D37B68DA8807F10C031946386A144BEB
S214401A309847386A134B98470346396A1846124BFC
S214401A40984778627B6A002B0CDB7A693B689B6818
S214401A509A42D6D3BA693B689B689A42D1D37B698F
S214401A607B6200E000BF386A084B98477B6A18469E
S214401A702837BD4680BD00BF0B134000811840008C
S214401A80F518400057134000791940005918400097
S214401A9080B400AF00231846BD465DF8047B70470F
S214401AA080B483B000AF786039607B68D3F8142187
S214401AB03B681A437B68C3F8142100BF0C37BD4609
S214401AC05DF8047B704780B483B000AF78603960BF
S214401AD07B683A681A6000BF0C37BD465DF8047BE9
S214401AE0704780B483B000AF786039607B683A68EE
S214401AF05A6000BF0C37BD465DF8047B704780B423
S214401B0083B000AF786039607B683A681A6100BF7E
S214401B100C37BD465DF8047B704780B483B000AF99
S214401B20786039607B683A685A6100BF0C37BD46BA
S214401B305DF8047B704780B483B000AF786039604E
S214401B407B683A681A6300BF0C37BD465DF8047B75
S214401B50704780B485B000AF786039607B689B6B17
S214401B60FB60FA683B681340FB60FB681846143716
S214401B70BD465DF8047B704780B483B000AF7860A4
S214401B8039607B683A685A6300BF0C37BD465DF8DB
S214401B90047B704780B483B000AF786039607B6860
S214401BA03A685A6600BF0C37BD465DF8047B7047FE
S214401BB080B483B000AF786039607B683A681A6654
S214401BC000BF0C37BD465DF8047B704780B483B0D9
S214401BD000AF786039607B683A68C3F8942000BFED
S214401BE00C37BD465DF8047B704780B483B000AFC9
S214401BF0786039607B683A68C3F8902000BF0C373D
S214401C00BD465DF8047B704780B485B000AFF86091
S214401C100B467A60FB72FA7AF97AFB681C3153F805
S214401C2021107B681943FB681C3243F8221000BF22
S214401C301437BD465DF8047B704780B485B000AF6E
S214401C40F8600B467A60FB72FA7AF97AFB681C31C8
S214401C5053F821107B68DB431940FB681C3243F87D
S214401C60221000BF1437BD465DF8047B7047000065
S214401C7080B483B000AF0346FB71FB795B021A4623
S214401C80034B134418460C37BD465DF8047B70473B
S214401C90000E0E4080B584B000AF03463960FB713D
S214401CA01346BB71FB7918460E4B9847F860BB79D4
S214401CB0002B0EDB012B02DD022B05D009E0396834
S214401CC0F868094B984709E03968F868074B984721
S214401CD004E0412206490020064B984700BF1037D3
S214401CE0BD4680BD711C40001B1B4000FF1A4000D3
S214401CF0B0224000AD0C400080B584B000AF034633
S214401D003960FB711346BB71FB791846094B9847FF
S214401D10F860BB79002B04D03968F868064B9847C2
S214401D2003E03968F868054B984700BF1037BD4652
S214401D3080BD00BF711C4000371B4000791B40002F
S214401D4080B586B000AF03463960FB71FB79184614
S214401D500C4B98477861396878690B4B98473861DF
S214401D603B69DA433B681340FB60F9687869074B88
S214401D70984739697869064B984700BF1837BD467B
S214401D8080BD00BF711C4000531B4000371B400005
S214401D90791B400080B584B000AF0346FB710B460C
S214401DA0BB7113467B71FB791846234B9847F86006
S214401DB07B79012B14D0022B23D0002B32D1BB7958
S214401DC0012202FA03F31946F8681C4B9847BB7980
S214401DD0012202FA03F31946F868194B984727E0A0
S214401DE0BB79012202FA03F31946F868144B984768
S214401DF0BB79012202FA03F31946F868114B98475B
S214401E0016E0BB79012202FA03F31946F8680B4B39
S214401E109847BB79012202FA03F31946F8680A4B41
S214401E20984705E0832209490020094B984700BFA0
S214401E3000BF1037BD4680BD711C4000B11B40003E
S214401E40EB1B4000951B4000CD1B4000B0224000DD
S214401E50AD0C400080B584B000AF786039607B68D8
S214401E605B09FB737B68DBB203F01F03BB73FB7B32
S214401E701846334B9847B860FB7B012B16D1BB7B8B
S214401E80042B0BD0BB7B052B08D0BB7B062B05D089
S214401E90BB7B072B02D0BB7B0C2B07D1BB7B012225
S214401EA002FA03F319462748274B98473B68B3F195
S214401EB0FF3F08D1BB7B012202FA03F31946B868FC
S214401EC0224B984737E03B6803F00103002B09D0CC
S214401ED0BB7B012202FA03F31A460021B8681C4B6A
S214401EE0984708E0BB7B012202FA03F31A4600211A
S214401EF0B868184B98473B6803F00203002B09D09C
S214401F00BB7B012202FA03F31A460121B868104B44
S214401F10984708E0BB7B012202FA03F31A460121E8
S214401F20B8680C4B9847BB7B012202FA03F319466C
S214401F30B868094B984700BF1037BD4680BD00BF04
S214401F40711C400000800840A11A4000C71A40009B
S214401F50091C40003B1C4000E31A400080B582B09C
S214401F6000AF03460A46FB711346BB71FB795B091B
S214401F70D8B2FB7903F01F03DBB2BA791946034B9C
S214401F80984700BF0837BD4680BD00BF951D40003E
S214401F9080B582B000AF7860396039687868034BA6
S214401FA0984700BF0837BD4680BD00BF551E40005D
S214401FB080B582B000AF03460A46FB711346BB713C
S214401FC0FB795B09D8B2FB7903F01F03012202FAC2
S214401FD003F3BA791946034B984700BF0837BD4606
S214401FE080BD00BF951C400080B582B000AF034660
S214401FF00A46FB711346BB71FB795B09D8B2FB7985
S21440200003F01F03012202FA03F3BA791946034B81
S214402010984700BF0837BD4680BD00BFF91C40004A
S21440202080B582B000AF0346FB71FB795B09D8B23E
S214402030FB7903F01F03012202FA03F31946034B10
S214402040984700BF0837BD4680BD00BF411D4000D1
S21440205080B582B000AF234B98473B1D19462248B7
S214402060224B98472048224B98474FF47A711E4897
S214402070204B984700211C481F4B984700211A4880
S2144020801E4B9847012123201D4B98470021742062
S2144020901C4B984700214820194B9847022148205E
S2144020A0194B98474FF0FF314820184B98470A2065
S2144020B0174B984701212220114B98470A20144B72
S2144020C098477B681846134B98477B680122412106
S2144020D01846114B98474820104B984764200C4BA5
S2144020E09847F2E7D501400020004020650C4000AC
S2144020F0410A40007D0A4000C10A4000090B4000EA
S214402100E91F40005D1F4000B11F4000911F400086
S2144021100509400021214000A9214000212040001F
S21440212080B582B000AF786000212220184B9847D7
S21440213002212220174B98474FF0FF312220164BA2
S214402140984700212220124B984701212220104B0D
S21440215098470220114B9847022240217868104B3E
S214402160984705200F4B9847C022412178680C4B72
S214402170984705200B4B9847012243217868084B27
S21440218098470520074B984700BF0837BD4680BD97
S214402190E91F4000B11F4000911F40000509400064
S2144021A0A9214000D108400080B584B000AFF86057
S2144021B0B9607A60002123200B4B984707F108034B
S2144021C001221946F868094B98473B1D01221946DB
S2144021D0F868064B984701212320034B984700BFD9
S2144021E01037BD4680BD00BFE91F4000390940009A
S2144021F070B50D4E0D4CA41BA4100025A54209D168
S2144022000B4E0C4C00F068F8A41BA4100025A54209
S21440221005D170BD56F8253098470135EEE756F89B
S214402220253098470135F2E7E4224000E42240009A
S214402230E4224000E82240002E2E2F68706C2F705B
S214402240696F2F68706C5F6770696F5F62617365F6
S2144022502E6800002E2E2F68616C2F7372632F68D5
S214402260616C5F696F2E63002E2E2F68616C2F7332
S21440227072632F68616C5F7370695F6D5F73796EB0
S214402280632E630000000000000000800100000094
S21440229002989604FFFF00002E2E2F68706C2F7356
S2144022A070692F68706C5F7370692E630000000061
S2144022B02E2E2F68706C2F70696F2F68706C5F675A
S2144022C070696F5F626173652E6800002E2E2F2E38
S2144022D02F6D61696E2E6300F8B500BFF8BC08BC70
S2144022E09E4670478D014000F8B500BFF8BC08BC5C
S20C4022F09E467047690140005C
S804400000BB
