:020000040040BA
:1000000028064020E5014000E1014000E1014000F8
:10001000E1014000E1014000E1014000000000007A
:10002000000000000000000000000000E1014000AE
:10003000E101400000000000E1014000E10140005A
:10004000E1014000E1014000E1014000E101400028
:10005000E1014000E1014000E1014000E101400018
:10006000E101400000000000E1014000E10140002A
:10007000E1014000E1014000E1014000E1014000F8
:1000800011044000E1014000E1014000E1014000B5
:10009000E1014000E1014000E1014000E1014000D8
:1000A000E1014000E1014000E1014000E1014000C8
:1000B000E1014000E1014000E1014000E1014000B8
:1000C000E1014000E1014000E1014000E1014000A8
:1000D000E1014000E1014000E1014000E101400098
:1000E000E1014000E1014000E1014000E101400088
:1000F000E1014000E1014000E1014000E101400078
:10010000E1014000E1014000E1014000E101400067
:10011000E1014000000000000000000000000000BD
:10012000E1014000E1014000E1014000E101400047
:10013000E1014000E1014000E1014000E101400037
:10014000E1014000E1014000E1014000E101400027
:10015000E1014000E1014000E1014000E101400017
:10016000E1014000E101400010B5054C237833B9AE
:10017000044B13B10448AFF300800123237010BD7A
:100180000000402000000000140740000C4B43B169
:100190000C480D4910B5AFF300800C48036823B933
:1001A00010BD0A48036833B97047094B002BF7D0DC
:1001B000BDE810401847064B002BF5D0184700BF8C
:1001C0000000000014074000040040201407400015
:1001D0000000000008B5014B984708BD69024000C7
:1001E000FEE7000008B5174B174A9A4210D0174B8C
:1001F000144A9A420CD2013B9B1A23F003030433A6
:100200001344114951F8040B42F8040B9A42F9D1F6
:100210000F4B104A9A420AD2013B9B1A23F0030368
:1002200004331344002142F8041B9342FBD10A4AD1
:100230000A4B23F07F039360094B9847094B98477B
:10024000FEE700BF000040201407400000004020EF
:10025000280040200000402000ED00E000004000A9
:10026000910640006106400008B5104B9847104BBE
:100270009B6913F4805F03D14FF480520C4B1A61D9
:100280000B4B9B6913F4803F03D14FF48032084B32
:100290001A61084A536843F400435360064B4FF415
:1002A00080721A631A611A6008BD00BF7D034000A6
:1002B00000060E4050180E4000120E40EFF310835F
:1002C000036072B6BFF35F8F7047BFF35F8F036841
:1002D00083F310887047000070B50C4B5C68A04237
:1002E0000ED0012300211E46FF2503E02B465A189D
:1002F000520804D1A042F9D93BB13146F7E770BDAD
:10030000024B1B680BB1984770BD70BD1C004020AC
:1003100008B5054B4FF0FF325A6000221A600348BF
:10032000034B984708BD00BF1C004020D902400085
:10033000B504400008B50D4B5B68984206D091B1FA
:100340000A4B1B6843B16FF00C0008BD074B1960E6
:1003500029B9074B984708BD044B19605860012123
:10036000034B984708BD6FF00C0008BD1C004020EF
:100370003105400000B900BE7047000000B583B0F1
:1003800001A80E4B98470E4AD2F8883043F4700308
:10039000C2F88830BFF34F8FBFF36F8F01A8094BAE
:1003A0009847094A136823F4706343F4A063136009
:1003B000064B984703B05DF804FB00BFBD02400048
:1003C00000ED00E0CB024000000C0E409105400023
:1003D000D9B130B40D460438002450F8041F11F090
:1003E000010F0DD10123022211420AD15200013323
:1003F000202BF9D10134AC42EFD14FF0FF3002E0B5
:10040000002303EB441030BC70474FF0FF307047BF
:100410002DE9F04186B000230193029303930493E6
:1004200005931F4B1868F8221E49003018BF0120A1
:100430001D4B98471D4AD36C926C134004935BB3D9
:100440001B4D174FDFF86480052101A8A84744B26F
:10045000B4F1FF3F18D0012620463B68984763114E
:1004600006AA02EB830304F01F0406FA04F453F80F
:10047000142C22EA040443F8144C052101A8A847CF
:1004800044B2B4F1FF3FE7D1D8F84C30D8F8482057
:1004900013400493002BD7D106B0BDE8F08100BF14
:1004A00024004020D80640007503400000140E4090
:1004B000D1034000F8B50746184D4FF4AA722946FB
:1004C0000120174CA047E02229460120A047D22254
:1004D00029460120A047134B4FF08052C3F8B020AB
:1004E000C3F8C0200026C3F8C460C3F8D060C3F8C6
:1004F000D420D22229460120A0470B4B4FF4803252
:10050000C3F88020BFF34F8FBFF36F8FC3F88021F4
:100510001A60064B1F603046F8BD00BFD806400089
:100520007503400000140E4000E100E0240040206C
:100530002DE9F04104460F46DFF8508040F2A11249
:1005400041469F288CBF002001200E4EB047E5B2E7
:10055000C32241469F2D8CBF00200120B0476D096A
:10056000094B03EB452504F01F0437B9012303FAB7
:1005700004F46C640020BDE8F081012303FA04F464
:100580002C64F7E775034000000E0E40D8064000CB
:100590001D490A6A22F002021C4B13430B620A46F1
:1005A000936E13F0010FFBD0174B196A184A0A43D8
:1005B0001A62996A174A0A409A62174A9A621A4658
:1005C000936E13F0020FFBD00F4A136B23F07003EE
:1005D0001363936E13F0080FFBD00B4A136B23F4D5
:1005E000407343F480731363936E13F0080FFBD0D2
:1005F000054A136B23F0030343F002031363936E66
:1006000013F0080FFBD0704700060E40013E370084
:1006100000003701FFFF00F8013F182010B5084A1D
:10062000936B03F48073D94301F4807111635363B6
:1006300000217C20034CA04703497C20A04710BD2B
:1006400000120E40350340001D06400008B5024967
:100650007C20024B984708BD1D0640003503400032
:1006600008B5074B9847074B4FF080525A611A66FE
:10067000C3F890201A60044B9847044B9847FEE754
:10068000D501400000140E40110340004D0640000B
:1006900070B50D4E0D4CA41BA4100025A54209D128
:1006A0000B4E0C4C00F026F8A41BA4100025A5420C
:1006B00005D170BD56F8253098470135EEE756F85C
:1006C000253098470135F2E7000740000007400059
:1006D00000074000040740002E2E2F68706C2F701A
:1006E000696F2F68706C5F70696F5F6578742E63D7
:1006F00000000000F8B500BFF8BC08BC9E4670477B
:100700008D014000F8B500BFF8BC08BC9E4670479C
:04071000690140003B
:0400000500400000B7
:00000001FF
