S02B0000544849524450415254595F4C5749505F5241575F42415349435F485454505F4558414D504C45342EB8
S214400000204E4020091C4000B91C4000B91C40004E
S214400010B91C4000B91C4000B91C4000000000005C
S214400020000000000000000000000000B91C400076
S214400030B91C400000000000B91C4000B91C40003C
S214400040B91C4000B91C4000B91C4000B91C400017
S214400050B91C4000B91C4000B91C4000B91C400007
S214400060B91C400000000000B9164000D116400000
S214400070E9164000B91C4000B91C4000B91C4000BD
S2144000800117400019174000B91C4000B91C400039
S214400090B91C4000B91C4000B91C400011C94000C2
S2144000A0B91C4000B91C4000B91C4000B91C4000B7
S2144000B0B91C4000B91C4000B91C4000B91C4000A7
S2144000C0B91C4000B91C4000B91C4000B91C400097
S2144000D0B91C4000B91C4000B91C40003DC040005F
S2144000E0B91C4000B91C4000B91C4000B91C400077
S2144000F0B91C4000B91C4000B91C4000B91C400067
S214400100B91C4000B91C4000B91C4000B91C400056
S214400110B91C400000000000000000000000000085
S214400120B91C4000B91C4000B91C4000B91C400036
S214400130B91C4000B91C4000B91C4000B91C400026
S214400140B91C4000B91C4000B91C4000B91C400016
S214400150B91C4000B91C4000B91C4000B91C400006
S214400160B91C4000B91C400010B5054C237833B983
S214400170044B13B10448AFF300800123237010BD35
S214400180180A40200000000040FD40000C4B43B1E0
S2144001900C480D4910B5AFF300800C48036823B9EE
S2144001A010BD0A48036833B97047094B002BF7D097
S2144001B0BDE810401847064B002BF5D0184700BF47
S2144001C00000000040FD40001C0A402040FD40006A
S2144001D00000000080B582B000AF78607B68072BD7
S2144001E031D801A252F823F04502400009024000EF
S2144001F0110240001902400021024000290240003E
S214400200310240003B0240000020114B98471AE064
S21440021001200F4B984716E000200E4B984712E0FF
S21440022010200C4B98470EE020200A4B98470AE0D7
S2144002303E210020084B984705E03E210120064B12
S214400240984700E000BF00BF0837BD4680BD00BFEE
S214400250311840009D1840000D19400080B582B00E
S21440026000AF78607B68072B26D801A252F823F0AF
S214400270910240009502400095024000A7024000CF
S214400280A7024000A7024000A7024000A702400085
S214400290012312E00B4B98470346002B14BF012363
S2144002A00023DBB209E0084B98470346002B14BFF7
S2144002B001230023DBB200E0002318460837BD4682
S2144002C080BD00BF691840008519400080B483B0E7
S2144002D000AF78607B68072B25D801A252F823F040
S2144002E001034000070340000D0340001303400095
S2144002F0170340001B0340001F0340002303400039
S2144003004FF4FA4310E04FF400430DE04FF400433F
S2144003100AE0084B08E0084B06E0084B04E0074BB1
S21440032002E0064B00E0002318460C37BD465DF859
S214400330047B704700093D0000127A00001BB7009E
S21440034080B582B000AF0346FB7100BFFB7918460C
S214400350054B9847034683F00103DBB2002BF5D1EB
S21440036000BF0837BD4680BD5D02400080B586B000
S21440037000AFF8607A603B600B46FB727B68002BF0
S21440038007D13B68002B04D1FB684FF470021A601B
S21440039019E0FB7A18460E4B984702467B68B2FB3C
S2144003A0F3F37B617B693A6802FB03F37B613B684E
S2144003B0013B1A04074B13407A68D2B2134343F406
S2144003C07C52FB681A6000BF1837BD4680BD00BF30
S2144003D0CD0240000000FF0780B582B000AF7860D5
S2144003E039603B68002B08D1094B9847094A7B681F
S2144003F01B6843F00053936205E0064A7B681B681F
S21440040043F48033D36100BF0837BD4680BD00BF8C
S214400410A119400000060E4080B582B000AF78605B
S2144004207B68002B03D1054B9847034602E0044BFC
S2144004309847034618460837BD4680BDBD1940005C
S214400440D919400080B582B000AF0346FB71FB79F6
S214400450033B042B08D8FB791846064B9847FB7994
S2144004601846054B984700E000BF00BF0837BD461A
S21440047080BD00BFD50140004103400080B582B03A
S21440048000AF786000BF7868044B98470346002B5F
S214400490F9D0002318460837BD4680BD19044000F1
S2144004A080B500AF0620054B9847024613469B0092
S2144004B013449A001344184680BD00BFCD02400046
S2144004C080B500AF024B984703465B08184680BD90
S2144004D0A104400090B583B000AF1348134B984733
S2144004E00620134B9847381D192301220621114C2C
S2144004F0A0473B1D002118460F4B984700200F4B46
S214400500984702200E4B984710200E4B98470E4BAC
S21440051098470E4B984703461846044B984700BFEB
S2144005200C37BD4690BD00BF000E2707291E400071
S214400530450440006D034000D90340007D04400060
S21440054031174000AD174000C11C4000C1044000B8
S21440055080B586B000AFF860B9607A6000237B61F2
S214400560FB68002B12D04FF0FF3313E00B4B1B6899
S2144005700B4A1268B96810469847BB680133BB609F
S2144005807B6901337B617B68013B7B607B68002B2A
S214400590ECDC7B6918461837BD4680BD2C394020B8
S2144005A03439402080B586B000AFF860B9607A60D4
S2144005B000237B61FB68012B1ED0FB68022B1BD0FF
S2144005C0FB68032B18D04FF0FF3319E00E4B1A6828
S2144005D00E4B1868BB68591CB9601B781946904783
S2144005E00346002B02DA4FF0FF3309E07B69013304
S2144005F07B617B68013B7B607B68002BE6D17B6937
S21440060018461837BD4680BD303940203439402022
S21440061080B582B000AF78607868034B984700BFDB
S2144006200837BD4680BD00BFF519400080B500AF15
S2144006300A20084B98470B20064B98470C20054B42
S21440064098471020034B98471120024B984700BF0D
S21440065080BD00BF1106400080B489B000AF78600E
S2144006607B68FB61FB69BB61BB695A09FB697B61BF
S2144006707B6903F01F03012101FA03F33A61FB6033
S2144006803B69BB60BA68064B13445B021A46FB687C
S214400690536000BF2437BD465DF8047B704700BFFB
S2144006A00707200080B48DB000AF786039607B6863
S2144006B0FB623B68BB62FB6A7B627B6A5A09FB6AE9
S2144006C03B623B6A03F01F03012101FA03F3FA6120
S2144006D0BB61BB6A7B61FB693B613A69374B13443C
S2144006E05B02FB607B6903F00803002B03D0FB68CA
S2144006F0BA695A6602E0FB68BA691A667B6903F013
S2144007001003002B04D0FB68BA69C3F8942003E0BA
S214400710FB68BA69C3F890207B6903F02003002B7E
S21440072003D0FB68BA691A6502E0FB68BA695A6585
S2144007307B6903F0C003002B03D0FB68BA691A62DA
S21440074002E0FB68BA695A627B6903F08003002BBB
S21440075004D0FB68BA69C3F8842003E0FB68BA6932
S214400760C3F880207B6903F00103002B06D0FB68AA
S2144007701A6FBB691A43FB681A6706E0FB681A6F74
S214400780BB69DB431A40FB681A677B6903F00203C8
S214400790002B06D0FB685A6FBB691A43FB685A6742
S2144007A006E0FB685A6FBB69DB431A40FB685A6732
S2144007B000BF3437BD465DF8047B7047070720000E
S2144007C080B48DB000AF78600B46FB707B68FB62F0
S2144007D0FB7887F82B30FB6A7B627B6A3B623B6A1E
S2144007E05B09FB61FA69174B13445B02BB6197F8E0
S2144007F02B30012B09D1FB6A7B617B6903F01F0319
S21440080001229A40BB691A610CE097F82B30002B06
S21440081008D1FB6A3B613B6903F01F0301229A4003
S214400820BB695A61FB6AFB60FB6803F01F03012249
S2144008309A40BB69C3F8A02000BF3437BD465DF878
S214400840047B70470707200080B48BB000AF786009
S2144008500B46FB707B687B62FB7887F823307B6AAD
S214400860FB61FB69BB61BB695B097B617A69104BC5
S21440087013445B023B6197F82330002B09D07B6A18
S214400880FB60FB6803F01F0301229A403B691A6332
S21440089008E07B6ABB60BB6803F01F0301229A40F6
S2144008A03B695A6300BF2C37BD465DF8047B7047F2
S2144008B00707200080B48DB000AF78600B46FB7011
S2144008C07B68FB62FB7887F82B30FB6A7B627B6A2F
S2144008D05A09FB6A3B623B6A03F01F03012101FA97
S2144008E003F3FA61BB6197F82B30FB75FB693B61FC
S2144008F03A69234B13445B02FB60FB7D013B032BB1
S2144009002ED801A252F823F03D0940004F0940007E
S214400910190940002B094000FB68BA69C3F8C42097
S214400920FB68BA69C3F8D0201FE0FB68BA69C3F811
S214400930C420FB68BA69C3F8D42016E0FB68BA69DD
S214400940C3F8C020FB68BA69C3F8D0200DE0FB6846
S214400950BA69C3F8C020FB68BA69C3F8D42004E07B
S214400960FB68BA69C3F8B42003E0FB68BA69C3F809
S214400970B02000BF3437BD465DF8047B704700BFEB
S2144009800707200080B400AFBFF34F8FBFF36F8FD1
S2144009900C4A0C4BD3F8903223F00103C2F8903245
S2144009A0084A084BD3F8943223F00103C2F8943235
S2144009B0BFF34F8FBFF36F8F00BFBD465DF8047B1C
S2144009C0704700BF00ED00E080B500AF1C4B4FF411
S2144009D000425A601B4B1C4A5A601A4B1B4A5A60CC
S2144009E01B4B98471B4B9847012148201A4B98476A
S2144009F001214820194B984700210B20164B984759
S214400A0088210B20164B984702210B20154B984700
S214400A1000211520124B98471520134B9847134A30
S214400A20124BD3F8143143F01003C2F814310321AB
S214400A3024200B4B984724200B4B984700BF80BD83
S214400A4050180E40000C0E400C08005A0C07005A76
S214400A50850940002D064000C10740004908400077
S214400A60A5064000B50840005906400000800840F2
S214400A7080B483B000AF78600B46FB70FB78002BE9
S214400A8006D07B681B6843F004027B681A6005E06A
S214400A907B681B6823F004027B681A6000BF0C3733
S214400AA0BD465DF8047B704780B483B000AF786085
S214400AB00B46FB70FB78002B06D07B681B6843F028
S214400AC008027B681A6005E07B681B6823F0080212
S214400AD07B681A6000BF0C37BD465DF8047B7047E4
S214400AE080B483B000AF78600B46FB70FB78002B79
S214400AF006D07B681B6843F010027B681A6005E0EE
S214400B007B681B6823F010027B681A6000BF0C37B6
S214400B10BD465DF8047B704780B483B000AF786014
S214400B200B46FB70FB78002B06D07B685B6843F077
S214400B3001027B685A6005E07B685B6823F001022F
S214400B407B685A6000BF0C37BD465DF8047B704733
S214400B5080B483B000AF78600B46FB70FB78002B08
S214400B6006D07B685B6843F002027B685A6005E00B
S214400B707B685B6823F002027B685A6000BF0C37D4
S214400B80BD465DF8047B704780B485B000AF7860A2
S214400B9039603B68204A934201D9FF2336E03B68E0
S214400BA01E4A934203D94FF4A013FB6021E03B68F2
S214400BB01B4A934203D94FF48013FB6019E03B680D
S214400BC0184A934203D94FF44023FB6011E03B6838
S214400BD0154A934203D94FF40023FB6009E03B6873
S214400BE0124A934203D94FF48023FB6001E000236E
S214400BF0FB607B685B6823F4E0127B685A607B6826
S214400C005A68FB681A437B685A60002318461437B4
S214400C10BD465DF8047B7047001C4E0E006889098F
S214400C20000E270700B4C404005A6202002D3101AA
S214400C3080B483B000AF78600B46FB70FB78002B27
S214400C4006D17B68DB6843F001027B68DA6006E029
S214400C507B68DB6823F001027B68DA6000BF00BF78
S214400C600C37BD465DF8047B7047000090B585B0F4
S214400C7000AF78600B46FB701346BB700023BB602A
S214400C800023FB73FB787B73012178681F4B9847E2
S214400C907B7BFB7307F10803F978022278681C4CCB
S214400CA0A047BB68222B1DD0FF23FB73BB78BB73CA
S214400CB015E07B7B0133DBB203F01F037B7307F148
S214400CC00803797B02227868114CA047BB68222B28
S214400CD002D17B7BFB7305E0BB7B0133BB73BB7BE5
S214400CE01F2BE6D900217868084B9847FB7BFF2BE3
S214400CF006D007F10803797B01227868044CA047A8
S214400D00FB7B18461437BD4690BD00BFE10A400045
S214400D10F112400090B589B002AFF8600B467A6099
S214400D20FB7201230093002301224FF480611D488B
S214400D301D4CA04701224FF480411C481C4B98474D
S214400D4040F2FF324FF000611A481B4B9847FB7A3F
S214400D5019461A481A4B98477968F868194B9847C5
S214400D600346FB75FB7D002B01D0002316E0FB7A83
S214400D7000221946F868144B98470346BB75BB7D5E
S214400D80FF2B01D1002309E0BA7DFB7A9A4204D0BA
S214400D90FB7A1946F8680A4B9847FB7D18461C377D
S214400DA0BD4690BD00120E4055154000000E0E4048
S214400DB0D514400000140E40C51340000000054006
S214400DC07D114000890B40006D0C400090B587B007
S214400DD000AF78600B46FB701346BB700121786805
S214400DE0434B9847FB787B7507F11003797D0122CA
S214400DF07868404CA04703463B753B7D002B05D0AA
S214400E00002178683A4B98473B7D6CE03B6903F09D
S214400E100403002B05D100217868354B9847FF2303
S214400E2061E0BB78002B05D100217868304B9847AD
S214400E303B7D58E007F10C03797D1E2278682D4CE7
S214400E40A04703463B753B7D002B05D000217868C4
S214400E50274B98473B7D46E03B6903F48043002B95
S214400E6008D0FB6803F00603002B03D00123FB7574
S214400E700123BB753B6903F48053002B08D0FB6805
S214400E8003F00503002B03D00023FB750123BB753D
S214400E903B6903F40053002B08D0FB6803F00203C1
S214400EA0002B03D00123FB750023BB753B6903F47D
S214400EB00063002B08D0FB6803F00103002B03D02F
S214400EC00023FB750023BB75FB7D194678680A4BEB
S214400ED09847BB7D19467868084B98470021786844
S214400EE0034B98473B7D18461C37BD4690BD00BF18
S214400EF0E10A4000F1124000190B4000510B40003F
S214400F0090B58BB000AF78600B46FB70914BFB61A1
S214400F1000237B62002387F82330002387F82230A3
S214400F20012178688C4B984707F11003F978002226
S214400F3078688A4CA0470346FB76FB7E002B05D09C
S214400F4000217868844B9847FB7EFEE03B6923F49B
S214400F5080533B613B6923F490433B613B6943F4D8
S214400F6080633B613B69F978002278687C4CA047F7
S214400F700346FB76FB7E002B05D000217868764B37
S214400F809847FB7EE1E040F2E1137B61F9787B69AC
S214400F9004227868724CA0470346FB76FB7E002B03
S214400FA005D0002178686C4B9847FB7ECDE007F172
S214400FB01003F97800227868684CA0470346FB7611
S214400FC0FB7E002B05D000217868634B9847FB7E5C
S214400FD0BBE03B6943F444533B613B69F9780022EC
S214400FE078685F4CA0470346FB76FB7E002B05D017
S214400FF000217868584B9847FB7EA6E03B6943F44F
S21440100000733B613B6923F480633B613B69F9783D
S21440101000227868524CA0470346FB76FB7E002BA6
S21440102005D0002178684C4B9847FB7E8DE007F151
S2144010301003F97801227868484CA0470346FB76AF
S214401040FB7E002B05D000217868434B9847FB7EFB
S2144010507BE03B6903F02003002B0FD1FB69002B9C
S214401060E5D07B6A01337B627A6AFB699A42DED3BB
S21440107000217868384B9847012366E000BF07F1A7
S2144010800C03F97805227868344CA0470346FB7673
S214401090FB7E002B05D0002178682F4B9847FB7EBF
S2144010A053E0FA687B69134003F48073002B06D044
S2144010B0012387F82330012387F8223028E0FA6896
S2144010C07B69134003F04003002B06D0002387F8CB
S2144010D02330012387F822301AE0FA687B691340F0
S2144010E003F08003002B06D0012387F8233000232B
S2144010F087F822300CE0FA687B69134003F020033F
S214401100002B05D0002387F82330002387F82230B1
S21440111097F8233019467868124B984797F822304C
S21440112019467868104B9847012178680F4B9847C6
S21440113001210F480F4B984701210D480E4B984709
S21440114000217868044B9847FB7E18462C37BD46EE
S21440115090BD00BF40420F00E10A4000F11240003F
S2144011604D134000190B4000510B4000310C40001D
S21440117000000540A90A4000710A400090B587B0BB
S21440118000AF78600B46FB70FB78BB740A237B612C
S2144011900123FB7401217868154B98474FF40043B0
S2144011A0FB60FB68B97C00227868124CA04707F1C8
S2144011B00C03B97C002278680F4CA0477B69013B42
S2144011C07B61FB6803F40043002B02D07B69002B55
S2144011D0EDD100217868064B98477B69002B01D0FB
S2144011E00023FB74FB7C18461C37BD4690BD00BFF1
S2144011F0E10A40004D134000F112400080B483B035
S21440120000AF78607B689B6803F00403002B14BF34
S21440121001230023DBB218460C37BD465DF8047B3D
S2144012207047000080B483B000AF7860084611462F
S2144012301A460346FB700B46BB7013467B7000BFD6
S2144012407B689B6803F00403002BF9D0FB78DB0532
S21440125003F07862BB789B0403F4F8031A437B7868
S214401260002B02D04FF0005301E04FF080531A435A
S2144012703B8A1A43044B13437A68536300BF0C37C8
S214401280BD465DF8047B70470000024080B483B0E2
S21440129000AF786000BF7B689B6803F00403002BB8
S2144012A0F9D07B685B6B9BB218460C37BD465DF841
S2144012B0047B704780B584B000AF78603960002307
S2144012C0FB6008E0FB680133FB60FA683B689A42C3
S2144012D001D3012306E07868044B98470346002B69
S2144012E0F0D0002318461037BD4680BDFD114000A3
S2144012F090B587B002AFF8607B600B46FB72134632
S214401300BB72BA7AF97A002300930123F8680B4C33
S214401310A0470B49F8680B4B98470346012B01D171
S214401320012307E0F868084B984703461A467B684F
S2144013301A60002318461437BD4690BD251240005B
S21440134040420F00B51240008D12400090B587B065
S21440135002AFF8607B600B46FB721346BB727B683D
S2144013609BB2BA7AF97A00930023F868074CA047F4
S2144013700749F868074B98470346012B01D10123DC
S21440138000E0002318461437BD4690BD25124000A5
S21440139040420F00B512400080B485B000AFF86000
S2144013A0B9607A607B68002B03D0FB68BA685A66DF
S2144013B002E0FB68BA681A6600BF1437BD465DF89F
S2144013C0047B704780B487B000AFF860B9607A603D
S2144013D0FB687A685A64BB68B3F1C05F4AD0B3F121
S2144013E0C05F08D8B3F1006F16D0B3F1805F2CD041
S2144013F0002B69D064E0B3F1205F65D0B3F1205F85
S21440140003D8B3F1005F4AD05AE0B3F1405F5BD0F7
S214401410B3F1605F58D053E0FB681B6F7B61FB689D
S2144014201A6F7B68D9437B690B401A40FB681A6782
S214401430FB685B6F7B61FB685A6F7B68D9437B694F
S2144014400B401A40FB685A673AE0FB681B6F7B61AB
S2144014507A687B691A43FB681A67FB685B6F7B6137
S214401460FB685A6F7B68D9437B690B401A40FB6820
S2144014705A6725E0FB681B6F7B61FB681A6F7B68C9
S214401480D9437B690B401A40FB681A67FB685B6F61
S2144014907B617A687B691A43FB685A6710E0FB6891
S2144014A01B6F7B617A687B691A43FB681A67FB6827
S2144014B05B6F7B617A687B691A43FB685A6700BF3B
S2144014C0FB687A685A6000E000BF1C37BD465DF88E
S2144014D0047B704780B584B000AFF860B9607A602E
S2144014E0B968F868194B98477B6803F001031A46B9
S2144014F0B968F868164B98477B6803F00A03002BD8
S21440150003D0FB68BA681A6202E0FB68BA685A629F
S2144015107B6803F00203002B04D0FB68BA68C3F86C
S214401520802008E07B6803F00803002B03D0FB68AC
S214401530BA68C3F88420FB68BA685A61FB68BA6820
S2144015401A6000BF1037BD4680BD00BFB9154000C9
S2144015509913400080B584B000AFF860B9607A60F7
S2144015603B60B968F868124B9847BA69B968F8683A
S214401570104B98473B68002B03D0FB68BA681A6547
S21440158002E0FB68BA685A657B68002B03D0FB68AC
S214401590BA681A6302E0FB68BA685A63FB68BA68BE
S2144015A01A61FB68BA681A6000BF1037BD4680BD36
S2144015B0B91540009913400080B483B000AF7860FE
S2144015C039607B683A685A6400BF0C37BD465DF8A0
S2144015D0047B704780B483B000AF78607B68DB6C78
S2144015E018460C37BD465DF8047B704780B483B020
S2144015F000AF78607B689B6C18460C37BD465DF83C
S214401600047B704780B584B000AF786039607868F6
S214401610264B9847F8607868254B98470246FB6803
S2144016201340FB60FB68002B3CD00023BB6034E0DB
S214401630204ABB681B0113441A683B689A4226D16D
S2144016401C4ABB681B01134404331A68FB681340EA
S214401650002B1CD0174ABB681B0113440C331B6875
S2144016601449BA6812010A4410681249BA6812014D
S2144016700A4404321268114698470E4ABB681B015A
S214401680134404331B68DB43FA681340FB60BB68B3
S2144016900133BB60BB68062B03D8FB68002BC7D161
S2144016A000E000BF00BF1037BD4680BDD5154000E6
S2144016B0ED154000340A402080B500AF0A210248AC
S2144016C0024B984700BF80BD000E0E4005164000F6
S2144016D080B500AF0B210248024B984700BF80BD43
S2144016E000100E400516400080B500AF0C210248A1
S2144016F0024B984700BF80BD00120E4005164000C2
S21440170080B500AF10210248024B984700BF80BD0D
S21440171000140E400516400080B500AF1121024867
S214401720024B984700BF80BD00160E40051640008D
S21440173080B483B000AF78607B68013B032B1AD837
S21440174001A252F823F000BF591740005F1740002F
S214401750671740006F17400000237B600EE04FF491
S21440176080737B600AE04FF440737B6006E04FF482
S21440177000737B6002E000237B6000BF0A490A4B8F
S2144017801B6B23F440727B6813430B6300BF064B0E
S2144017909B6E03F00803002BF9D000BF0C37BD4604
S2144017A05DF8047B704700BF00060E4080B485B0ED
S2144017B000AF78601D491D4B1B6B23F070027B68A1
S2144017C013430B634FF48053FB6007E0FB68002B2A
S2144017D001D1012323E0FB68013BFB60134B9B6E6A
S2144017E003F00803002BF1D0104A104B1B6B23F07C
S2144017F0030343F0020313634FF48053FB6007E098
S214401800FB68002B01D1012309E0FB68013BFB602C
S214401810064B9B6E03F00803002BF1D000231846BE
S2144018201437BD465DF8047B704700BF00060E4087
S21440183080B483B000AF78607B68012B05D1074940
S214401840064B9A68064B13438B60044B054A1A6056
S21440185000BF0C37BD465DF8047B704710180E403D
S214401860000010A5080000A580B400AF094B5B69D6
S21440187003F08003002B07D0074B9B6E03F08003DA
S214401880002B01D0012300E000231846BD465DF83A
S214401890047B704710180E4000060E4080B483B09C
S2144018A000AF78601549154B1A6A154B13430B6207
S2144018B000BF124B9B6E03F40033002BF9D00F4948
S2144018C00E4B1A6A0F4B13407A68134343F45C136B
S2144018D00B6200BF094B9B6E03F40033002BF9D01C
S2144018E00649064B1A6A084B134043F45C130B62D6
S2144018F000BF0C37BD465DF8047B704700060E40BF
S214401900080037008FFFC8FFFFFFC8FE80B483B0D3
S21440191000AF786039607B68002B08D01349134BC2
S2144019201B6A134A1A40134B13430B6218E00F49C5
S2144019300E4B1A6A104B13403A68120292B21A4380
S2144019400E4B13430B6200BF084B9B6E03F0010324
S214401950002BF9D00549054B1A6A094B13430B6215
S21440196000BF0C37BD465DF8047B704700060E404E
S214401970FCFFC8FE02003701FCFFC8FF010037002D
S2144019800000370180B400AF044B9B6E03F48033F5
S2144019901846BD465DF8047B704700BF00060E4003
S2144019A080B400AF044B4FF000529A6200BFBD4671
S2144019B05DF8047B704700BF00060E4080B400AF61
S2144019C0044B9B6E03F002031846BD465DF8047B4D
S2144019D0704700BF00060E4080B400AF044B9B6EBD
S2144019E003F040031846BD465DF8047B704700BFD1
S2144019F000060E4080B485B000AF78600B4A7B6826
S214401A0003F07F03C2F80C31084BD3F80C3143F097
S214401A101023FB60054AFB68C2F80C3100231846C9
S214401A201437BD465DF8047B704700BF00060E4085
S214401A3080B487B000AFF860B9607A60FA68BB6877
S214401A409B0113447B617B6902221A607B694FF0DD
S214401A50FF329A627B691B6A7B697A685A6000BF6C
S214401A601C37BD465DF8047B704780B483B000AF3A
S214401A70786039607A683B689B01134405221A6097
S214401A8000BF0C37BD465DF8047B704780B485B018
S214401A9000AFF860B9607A60FA68BB689B0113448F
S214401AA01C337A681A6000BF1437BD465DF8047B65
S214401AB0704780B487B000AFF860B9607A60FA6863
S214401AC0BB689B0113447B617B697A685A6200BF9E
S214401AD01C37BD465DF8047B704780B48DB000AFC0
S214401AE0F860B9607A603B6002233B6108237B6103
S214401AF02023BB618023FB61BB6BDB0B3B62002377
S214401B00FB621AE0FB6A9B0007F13002134453F86D
S214401B10203CBA68B2FBF3F3BB62BB6A1B0C7B6229
S214401B20FA68BB6A9A4201D9002323E0FA687B6AC6
S214401B309A4206D2FB6A0133FB62FB6A042BE1D968
S214401B4000E000BFFB6A042B01D9002312E07B684B
S214401B50002B08D0FB6A9B0007F13002134453F871
S214401B60202C7B681A603B68002B02D03B68FA6AE0
S214401B701A60012318463437BD465DF8047B70472B
S214401B8080B483B000AFEFF310837B607B68002B9C
S214401B900CBF01230023DBB23B6072B6BFF35F8FFE
S214401BA0044B00221A703B6818460C37BD465DF859
S214401BB0047B70470000402080B483B000AF78605C
S214401BC07B68002B14BF01230023DBB218460C377A
S214401BD0BD465DF8047B704780B582B000AF786044
S214401BE07868074B98470346002B05D0054B0122E3
S214401BF01A70BFF35F8F62B600BF0837BD4680BD20
S214401C00B91B40000000402080B584B000AF1E4B9A
S214401C10FB601E4BBB60FA68BB689A420CD007E07C
S214401C20BB681A1DBA60FA68111DF96012681A601E
S214401C30BB68174A9342F3D3164BBB6004E0BB68BD
S214401C401A1DBA6000221A60BB68134A9342F6D344
S214401C50124BFB60124AFB6823F07F039360114BE4
S214401C6098477860104A104B1B6843F47003136023
S214401C70BFF34F8FBFF36F8F78680C4B98470C4B72
S214401C8098470C4B9847FEE740FD40000000402038
S214401C90180A4020180A40201C4A402000004000F5
S214401CA000ED00E0811B400088ED00E0D91B4000BD
S214401CB0A1CC4000B9CB400080B400AFFEE70000A6
S214401CC080B400AF524B1B6B03F00303012B14D0C0
S214401CD0012B02D3022B38D07AE04E4B5B6903F0DF
S214401CE08003002B04D04C4B4FF400421A606FE048
S214401CF0494B4FF4FA421A606AE0454B1B6A03F0C0
S214401D008073002B03D0444B444A1A6060E0424B39
S214401D10434A1A603E4B1B6A03F07003102B04D0F4
S214401D20202B08D0002B0ED00EE03B4B1B685B00F0
S214401D30394A136008E0384B1A6813465B00134470
S214401D40354A136000E000BF42E0314B1B6A03F0A7
S214401D508073002B03D0304B304A1A601CE02E4B69
S214401D602F4A1A602A4B1B6A03F07003102B04D0CC
S214401D70202B08D0002B0ED00EE0274B1B685B00B4
S214401D80254A136008E0244B1A6813465B00134448
S214401D90214A136000E000BF1D4B1B6B03F003039A
S214401DA0022B14D11A4B9B6A1B0CC3F30A03013354
S214401DB0194A126802FB03F3174A1360144B9B6AD6
S214401DC0DBB2154A1268B2FBF3F3134A136000BF46
S214401DD00F4B1B6B03F07003702B08D10E4B1B6828
S214401DE0104AA2FB03235B080B4A13600AE0084B29
S214401DF01B6B1B0903F00703074A126822FA03F31A
S214401E00054A136000BFBD465DF8047B704700BFBF
S214401E1000060E4010180E4004004020001BB7007D
S214401E2000093D00ABAAAAAA80B483B000AF786090
S214401E307B681D4A934204D81C4B4FF080621A6060
S214401E402BE07B681A4A934203D8184B194A1A600B
S214401E5023E07B68184A934203D8144B174A1A600B
S214401E601BE07B68164A934203D8104B154A1A600B
S214401E7013E07B68144A934204D80C4B4FF004227C
S214401E801A600AE07B68114A934203D8074B104A0F
S214401E901A6002E0054B0F4A1A6000BF0C37BD4679
S214401EA05DF8047B704700BFBFF35E01000C0E4038
S214401EB07FE7BD02000100043FDB1C040002000473
S214401EC0FFCE7B0500030004BFC2DA067FB63908A2
S214401ED0000500040006000480B485B000AF7860BA
S214401EE0104BFB60104B1B68002B02D10E4B0F4A69
S214401EF01A600D4B1B68BB60BA687B681A44FB6867
S214401F009A4202DD4FF0FF3306E0074B1A687B68C3
S214401F101344054A1360BB6818461437BD465DF83F
S214401F20047B7047FCFF4520A40A402020504020F8
S214401F3080B483B000AF78604FF0FF3318460C375C
S214401F40BD465DF8047B704780B483B000AF7860D0
S214401F5039603B684FF400525A60002318460C37ED
S214401F60BD465DF8047B704780B483B000AF7860B0
S214401F70012318460C37BD465DF8047B704780B495
S214401F8085B000AFF860B9607A6000231846143711
S214401F90BD465DF8047B704780B483B000AF03460F
S214401FA0FB80FB881B021AB2FB881B0A9BB21BB243
S214401FB013431BB29BB218460C37BD465DF8047BF4
S214401FC07047000080B582B000AF0346FB80FB88B8
S214401FD01846034B9847034618460837BD4680BD0B
S214401FE0991F400080B483B000AF78607B681A06C3
S214401FF07B681B0203F47F031A437B681B0A03F4C7
S2144020007F431A437B681B0E134318460C37BD4666
S2144020105DF8047B7047000080B582B000AF786002
S2144020207868034B9847034618460837BD4680BD38
S214402030E51F400080B584B000AF78607B681B6ABF
S214402040FB6078680C4B98470C4978680C4B98476F
S2144020500A4978680B4B9847084978680A4B98476E
S2144020600C21F868094B98477868094B984700BF99
S2144020701037BD4680BD00BF7D574000F4FA400093
S214402080FD554000B1564000D9564000192F40003B
S2144020900128400080B584B000AF78607B681B6A3A
S2144020A0FB600821F868124B9847FB6824330022EF
S2144020B0194678680F4B98470346FB72FB685B7B74
S2144020C00133DAB2FB685A734FF4FA733B813B89AB
S2144020D003F2F313084A82FB03125211DB17D31A9A
S2144020E09AB2FB685A8300BF1037BD4680BD00BF1A
S2144020F0192F4000E9B64000D34D621080B584B039
S21440210000AF78607B681B6AFB600C4B9B78002BAB
S2144021100FD00B4B9B6818460A4B98470246FB6805
S2144021201A62FB689B681A69FB685A627868064BB5
S214402130984700BF1037BD4680BD00BF38394020A5
S21440214044394020E51F40004D21400090B587B0FF
S21440215002AF78607B681B6AFB600121F868464BDB
S21440216098470322F9687868444B98470346FB72C1
S21440217097F90B30002B57D102223921F868404B93
S21440218098477B689B8C1946F8683E4B98470422D4
S2144021903221F8683A4B9847FB685B6A18463A4BD8
S2144021A0984703461946F868384B98470422362124
S2144021B0F868334B9847FB681B6A1846324B98477B
S2144021C003461946F868314B984704223721F86889
S2144021D02B4B98470121F8682D4B98470321F86808
S2144021E02B4B98471C21F868294B98470621F868DE
S2144021F0274B9847F868274B9847FB681A69FB684F
S2144022001B8BF0339BB219461046234B9847FB680E
S2144022105868FB6819697B68009343231F4A204C23
S214402220A047F8681F4B9847FB685B7B0133DAB2E0
S214402230FB685A73FB685B7B052B07D8FB685B7BA8
S2144022401A464FF47A7393409BB201E04EF66023F1
S2144022503B813B8903F2F313134A82FB031252116C
S214402260DB17D31A9AB2FB685A8397F90B30184695
S2144022701437BD4690BD00BF192F4000453640007C
S2144022804D2F4000C92F4000192040001F3040000D
S214402290992F4000B1384000E9594000F8FA400014
S2144022A051AA400075384000D34D621080B582B0C8
S2144022B000AF144B1B687B601DE07B681B6A002BDD
S2144022C016D07B681A6AD38B591E89B2D183012BEC
S2144022D003D178680C4B98470AE07B681A6A938B60
S2144022E0591E89B29183012B02D17868074B9847D3
S2144022F07B681B687B607B68002BDED100BF08379D
S214402300BD4680BD9049402099244000612440004D
S21440231080B582B000AF164B1B687B6020E07B68C0
S2144023201B6A002B19D07B681B6A5B8B012B06D976
S2144023307B681B6A5A8B013A92B25A830DE07B68DF
S2144023401B6A5B8B012B08D17B681B6A5A8B013A50
S21440235092B25A837868074B98477B681B687B60C5
S2144023607B68002BDBD100BF0837BD4680BD00BF71
S214402370904940207923400080B584B000AF786013
S2144023807B681B6AFB60FB681B7B0C2B03D0FB68DF
S2144023901B7B062B03D17868294B98474CE0FB689B
S2144023A01B7B012B0ED1FB685B7B052B03D8786823
S2144023B0244B984740E07868234B98477868204BF2
S2144023C0984739E0FB681B7B082B0BD1FB685B7B8F
S2144023D0012B03D878681D4B98472DE078681C4B36
S2144023E0984729E0FB681B7B052B03D17868194B7F
S2144023F0984721E0FB681B7B042B0ED1FB685B7B78
S214402400082B03D87868144B984715E078680E4B2D
S214402410984778680A4B98470EE0FB681B7B032B6F
S2144024200AD1FB685B7B012B03D878680B4B984737
S21440243002E07868024B984700BF1037BD4680BD23
S214402440012840004D214000852D40009520400049
S21440245025294000852A4000792B40006D2C4000FD
S21440246080B584B000AF78607B681B6AFB60FB6811
S2144024701B7B012B07D0FB681B7B0A2B03D0FB681A
S2144024801B7B052B02D17868024B984700BF10375C
S214402490BD4680BD852A400080B584B000AF7860D8
S2144024A07B681B6AFB60FB681B7B012B07D0FB68C5
S2144024B01B7B0A2B03D0FB681B7B052B02D178685D
S2144024C0024B984700BF1037BD4680BD792B400071
S2144024D080B584B000AF78607B681B6AFB60FB68A1
S2144024E000229A62FB680022DA62254BDB78002BDA
S2144024F003D0244BDA68FB681A63214B1B79002B08
S21440250004D0204B1A69FB685A6304E0FB681B6BD7
S2144025105A08FB685A631A4B5B79002B04D0194B58
S2144025205A69FB689A6303E0FB681A6BFB689A6318
S214402530FB689B681A69FB685A62114B9B79002BB3
S2144025400BD0104B9B6918460F4B98470246FB68CA
S2144025509A62FB6801229A7302E0FB6800229A7333
S214402560074BDB79002B07D0064BDB691846064B3A
S21440257098470246FB68DA6200BF1037BD4680BD0A
S2144025803839402044394020E51F400080B584B0AB
S21440259000AF78600023FB727B68002B00D1FEE71B
S2144025A07B681B6AFB607B6893F82D3023F008033A
S2144025B0DAB27B6883F82D207B6893F82D3003F0E1
S2144025C02003002B02D16FF00D036AE07B689B8CE2
S2144025D0B3F5107F02D24FF0FF3362E0FB68002B6A
S2144025E00DD13C20314B9847F860FB68002B02D158
S2144025F04FF0FF3355E07B68FA681A6208E0FB68E4
S2144026005B68002B04D0FB685B681846284B9847ED
S2144026103C220021F868274B9847274B98470246AC
S214402620FB685A60FB685B68002B02D14FF0FF33B3
S21440263037E0FB685B68FA685268127A42F020021C
S214402640D2B21A72FB685B6844221C4918461C4B7F
S2144026509847FB685B68432218491846194B9847C9
S214402660FB685B687A6818491846184B984778683C
S214402670174B98470346FB7297F90B30002B05D053
S2144026807868144B98474FF0FF330AE07B6893F81E
S2144026902D3043F00803DAB27B6883F82D2097F993
S2144026A00B3018461037BD4680BD00BFC1524000B3
S2144026B05DAD4000ADCE4000C1AD4000F4FA4000F4
S2144026C0D9AB40009DAC4000D534400039AD400009
S2144026D001284000B92E400080B582B000AF786037
S2144026E039607B68002B00D1FEE77B681B6A002BB5
S2144026F00ED07B681B6A1B7B082B09D13B681A6887
S2144027007B681B6A5B6A9A4202D17868024B98479C
S21440271000BF0837BD4680BD1D27400090B587B036
S21440272002AF78607B681B6AFB600023FB720C215B
S214402730F868284B98470422F9687868264B9847EB
S2144027400346FB7297F90B30002B28D10422322126
S214402750F868224B9847FB685B6A1846204B9847B8
S21440276003461946F8681F4B9847F8681E4B98472B
S214402770FB681A69FB681B8BF0339BB21946104600
S2144027801A4B9847FB685868FB6819697B68009342
S2144027904323174A174CA047F868174B9847FB68DF
S2144027A05B7B0133DAB2FB685A7342F210733B81AB
S2144027B03B8903F2F313114A82FB03125211DB17D3
S2144027C0D31A9AB2FB685A8397F90B3018461437D7
S2144027D0BD4690BD192F4000453640004D2F400065
S2144027E0192040001F304000B1384000E9594000F1
S2144027F0F8FA400051AA400075384000D34D6210A8
S21440280090B587B002AF78607B681B6AFB60002398
S214402810FB72FB6800225A620621F868364B9847DE
S2144028200122F9687868354B98470346FB7297F95A
S2144028300B30002B39D102223921F868304B9847AB
S2144028407B689B8C1946F8682E4B984704223721A4
S214402850F8682B4B98470121F8682B4B9847032183
S214402860F868294B98471C21F868274B984706215B
S214402870F868254B9847F868244B9847FB681A69D0
S214402880FB681B8BF0339BB219461046204B98478B
S214402890FB685868FB6819697B68009343231D4AA8
S2144028A01D4CA047F8681D4B9847FB685B7B01337F
S2144028B0DAB2FB685A73FB685B7B052B07D8FB686C
S2144028C05B7B1A464FF47A7393409BB201E04EF618
S2144028D060233B813B8903F2F313114A82FB0312C8
S2144028E05211DB17D31A9AB2FB685A8397F90B300A
S2144028F018461437BD4690BD192F40004536400057
S2144029004D2F4000C92F4000992F4000B13840005D
S214402910E9594000F8FA400051AA40007538400096
S214402920D34D621080B588B000AF78607B68002BCE
S21440293000D1FEE77B681B6ABB61BB69002B00D1F8
S214402940FEE7BB695B6BB3F1FF3F19D0BB695B6BBE
S2144029501E33464AA2FB03235B09FB61FB69B3F5C2
S214402960803F02D34FF6FF73FB61FB699AB2BB69A7
S2144029709A83BB699B8B002B02D1BB6901229A8349
S214402980BB699B6BB3F1FF3F19D0BB699B6B1E3392
S214402990364AA2FB03235B09FB61FB69B3F5803F24
S2144029A002D34FF6FF73FB61FB699AB2BB69DA83C9
S2144029B0BB69DB8B002B02D1BB690122DA83BB6982
S2144029C09A8BBB69DB8B9A4206D3BB69DB8B002BA9
S2144029D002D0BB6900229A83BB699B7B002B03D045
S2144029E0BB699B6A3B6114E0BB6924331B78FB756B
S2144029F097F91730002B02DBFF233B6109E0FB7D94
S214402A00BF2B03D96FF07F433B6102E04FF6FF7365
S214402A103B61BB69DB6AFB60FB68002B08D1BB6986
S214402A205A6A3B691340FB60FB6843F08073FB6067
S214402A30BB692433194678680D4B984707F1100355
S214402A40194678680B4B984707F10C031946786887
S214402A50094B98477868094B98470A21B869084B4C
S214402A60984700BF2037BD4680BD00BF898888880C
S214402A70FD554000D9564000B15640002157400011
S214402A80192F400090B587B002AF78607B681B6A0C
S214402A90FB600521F8682F4B98470322F968786851
S214402AA02D4B98470346FB7297F90B30002B26D1E7
S214402AB002223921F868294B98477B689B8C194637
S214402AC0F868274B9847F868264B9847FB681A697A
S214402AD0FB681B8BF0339BB219461046224B984737
S214402AE0FB685868FB681969FB6803F120027B683D
S214402AF0009343231D4CA047F8681D4B9847FB683E
S214402B005B7B0133DAB2FB685A73FB685B7B092B4D
S214402B100AD8FB685B7B9BB21A465201D21A9200D7
S214402B2013441B019BB201E044F620633B813B8982
S214402B3003F2F3130F4A82FB03125211DB17D31A28
S214402B409AB2FB685A8397F90B3018461437BD463D
S214402B5090BD00BF192F4000453640004D2F400025
S214402B60C92F4000B1384000E959400051AA400002
S214402B7075384000D34D621090B587B002AF78608C
S214402B807B681B6AFB600421F8682E4B984703223B
S214402B90F96878682C4B98470346FB7297F90B30D8
S214402BA0002B24D102223921F868284B98477B68AD
S214402BB09B8C1946F868264B9847F868254B9847EB
S214402BC0FB681A69FB681B8BF0339BB219461046AC
S214402BD0214B9847FB685868FB6819697B680093E7
S214402BE043231E4A1E4CA047F8681E4B9847FB6876
S214402BF05B7B0133DAB2FB685A73FB685B7B092B5D
S214402C000AD8FB685B7B9BB21A465201D21A9200E6
S214402C101344DB009BB201E042F210733B813B89D8
S214402C2003F2F313104A82FB03125211DB17D31A36
S214402C309AB2FB685A8397F90B3018461437BD464C
S214402C4090BD00BF192F4000453640004D2F400034
S214402C50C92F4000B1384000E9594000F8FA40001A
S214402C6051AA400075384000D34D621090B587B0E9
S214402C7002AF78607B681B6AFB600321F868354BBF
S214402C8098470322F9687868334B98470346FB72A7
S214402C9097F90B30002B32D102223921F8682F4B9E
S214402CA098474FF41071F8682D4B9847042232210C
S214402CB0F8682A4B9847FB685B6A1846294B984742
S214402CC003461946F868284B9847F868274B9847B4
S214402CD0FB681A69FB681B8BF0339BB2194610469B
S214402CE0234B9847FB685868FB6819697B680093D4
S214402CF04323204A204CA047F868204B9847FB685F
S214402D005B7B0133DAB2FB685A73FB685B7B092B4B
S214402D100AD8FB685B7B9BB21A465201D21A9200D5
S214402D201344DB009BB201E042F210733B813B89C7
S214402D3003F2F313124A82FB03125211DB17D31A23
S214402D409AB2FB685A8397F90B3018461437BD463B
S214402D5090BD00BF192F4000453640004D2F400023
S214402D60C92F4000192040001F304000B1384000B5
S214402D70E9594000F8FA400051AA40007538400032
S214402D80D34D621090B587B002AF78607B681B6AFF
S214402D90FB600021F8683C4B9847FB6800221A62AB
S214402DA0FB6800225A62FB6800229A62FB68002297
S214402DB0DA62FB6800229A63FB689A6BFB685A6388
S214402DC0FB685A6BFB681A630722F96878682F4BD2
S214402DD098470346FB7297F90B30002B1BD1F868D7
S214402DE02B4B9847FB681A69FB681B8BF0339BB2EA
S214402DF019461046274B9847FB685868FB68196980
S214402E00FB6803F120027B6800934323224CA047D3
S214402E10F868224B9847FB685B7B0133DAB2FB6865
S214402E205A73FB685B7B092B0AD8FB685B7B9BB2BB
S214402E301A465201D21A92001344DB009BB201E0BC
S214402E4042F210733B813B8903F2F313144A82FB30
S214402E5003125211DB17D31A9AB2FB685A8378686A
S214402E60104B984710497868104B98470E49786839
S214402E700F4B98470C4978680E4B984797F90B309C
S214402E8018461437BD4690BD192F400045364000C1
S214402E90B1384000E959400051AA4000753840001A
S214402EA0D34D62107D574000F4FA4000FD55400077
S214402EB0B1564000D956400080B584B000AF786027
S214402EC07B68002B00D1FEE77B681B6AFB607B6853
S214402ED093F82D3023F00803DAB27B6883F82D2070
S214402EE0FB68002B0FD0FB685B68002B07D0FB68A5
S214402EF05B681846064B9847FB6800225A600021DC
S214402F00F868044B984700BF1037BD4680BD00BFE9
S214402F105DAD4000192F400080B483B000AF7860AC
S214402F200B46FB707B681B7BFA789A4208D07B681E
S214402F30FA781A737B6800225A737B6800225A8399
S214402F4000BF0C37BD465DF8047B704780B483B045
S214402F5000AF78600B46FB701346BB707B685A69BF
S214402F607B681B8B591C88B2796808831344FA78AF
S214402F7083F8F0207B685A697B681B8B591C88B2A3
S214402F80796808831344BA7883F8F02000BF0C377A
S214402F90BD465DF8047B704780B483B000AF786070
S214402FA00B46FB707B685A697B681B8B591C88B242
S214402FB0796808831344FA7883F8F02000BF0C370A
S214402FC0BD465DF8047B704780B483B000AF786040
S214402FD00B467B807B685A697B681B8B591C88B282
S214402FE07968088318467B881B0A9BB2D9B21318A7
S214402FF00A4683F8F0207B685A697B681B8B591C0D
S21440300088B2796808837988C9B213440A4683F837
S214403010F02000BF0C37BD465DF8047B704780B497
S21440302083B000AF786039607B685A697B681B8BD9
S214403030591C88B27968088318463B681B0ED9B27B
S21440304013180A4683F8F0207B685A697B681B8B06
S214403050591C88B27968088318463B681B0CD9B25D
S21440306013180A4683F8F0207B685A697B681B8BE6
S214403070591C88B27968088318463B681B0AD9B23F
S21440308013180A4683F8F0207B685A697B681B8BC6
S214403090591C88B2796808833968C9B213440A460D
S2144030A083F8F02000BF0C37BD465DF8047B7047C0
S2144030B090B58FB000AF7860396000237B62002304
S2144030C03B620A220021A848A84B98473B685B8988
S2144030D02B2B02D86FF00103EDE13B685A687B6802
S2144030E09A60F023FB853B681B89BB853B68BB62C7
S2144030F00CE0BB6A5B89FA8DD31AFB85BB6A5B8999
S214403100BA8DD31ABB85BB6A1B68BB62BB6A002BF1
S21440311004D0BB6A5B89FA8D9A42EAD2BB6A002B1E
S21440312002D16FF00103C6E1FB8D7B86BB8D3B86EB
S214403130BB6A5B687B637EE17B8E7A6B13441B784D
S2144031407B750023BB774FF0FF33BB617B8E02332A
S214403150FB827B8E0133BA6A5289934206DA7B8EB3
S21440316001337A6B13441B78FB770AE0BB6A1B6813
S214403170002B04D0BB6A1B685B681B7800E000230A
S214403180FB77FB7FBB777B7D3B2B00F2D28001A297
S21440319052F823F0853240009532400033334000E9
S2144031A0A33240003333400033334000B732400050
S2144031B03333400033334000333340003333400032
S2144031C03333400033334000333340003333400022
S2144031D03333400033334000333340003333400012
S2144031E03333400033334000333340003333400002
S2144031F033334000333340003333400033334000F2
S21440320033334000333340003333400033334000E1
S21440321033334000333340003333400033334000D1
S21440322033334000333340003333400033334000C1
S21440323033334000333340003333400033334000B1
S21440324033334000333340003333400033334000A1
S2144032503333400033334000333340003333400091
S214403260DF324000ED324000FB3240000933400080
S214403270333340003333400033334000173340008D
S214403280253340000023FB77FB7FBB777B8E013BDB
S2144032907B8651E0FB7F042B00D0FEE70623BB6114
S2144032A04AE00423BB77FA7FBB7F9A4200D2FEE710
S2144032B00723BB6140E0FB7F03F00303DBB2002B38
S2144032C000D0FEE7FB7F082B28BF0823BB77FA7F9A
S2144032D0BB7F9A4200D2FEE70823BB612CE0FB7F0F
S2144032E0042B00D0FEE70323BB6125E0FB7F012BC8
S2144032F000D0FEE70023BB611EE0FB7F012B00D021
S214403300FEE70123BB6117E0FB7F042B00D0FEE7FE
S2144033100223BB6110E0FB7F042B00D0FEE70423B2
S214403320BB6109E0FB7F042B00D0FEE70523BB61B1
S21440333002E00023BB7700BFFB7F9AB27B8E13442C
S2144033409BB202337B86BB7F002B58D00023BB60EA
S214403350054ABB6913441B78002B50D1BB7F032B17
S21440336006D8BB7F9BB204E038394020ADCE400043
S21440337004237B82FB8A7A8A07F10801B86A504C9C
S214403380A047BB7F042B1ED9BB7F03F00303DBB2F1
S214403390002B00D0FEE74B4ABB69134401221A704B
S2144033A0BB681846484B98470146484ABB6942F8AE
S2144033B02310BB7F043BBB77FB8A0433FB82BB698D
S2144033C00133BB61C4E7BB7F042B06D1BB681846FC
S2144033D03F4B98470346BB6007E0BB7F012B00D0BE
S2144033E0FEE707F108031B78BB60364ABB69134407
S2144033F001221A70BA683549BB6941F82320BB6A76
S2144034005B897A8E9A4216D3BB6A5B897A8ED31AC8
S2144034107B86BB6A5B893A8ED31A3B867A8E3B8E16
S2144034209A4216D23B8E002B13D0BB6A1B68BB62F7
S214403430BB6A5B687B63BB6A002B0AD07B8E7A6B69
S21440344013441B78FF2B04D07A8E3B8E9A42FFF4AF
S21440345073AE1C4B1B78002B18D01C4B1B68FB60B4
S214403460184B00221A70FB68012B02D101237B62A5
S2144034700CE0FB68022B02D101233B6206E0FB68AE
S214403480032B03D101233B6201237B627B6A002B23
S21440349006D000237B626C23FB85EC23BB8525E6A8
S2144034A03B6A002B06D000233B622C23FB856C2313
S2144034B0BB851BE6002318463C37BD4690BD00BF83
S2144034C0F15D400038394020E51F40004439402037
S2144034D01920400080B58AB000AFF860B9607A60C5
S2144034E03B60FB683B623B6A1B6AFB617B685B68D0
S2144034F0BB617B685B892B2B7BD9BB691B78022B16
S21440350079D1002387F8273011E097F827303A6AB8
S214403510134493F8272097F82730B9690B441B7F4C
S2144035209A426AD197F82730013387F827303B6AAA
S21440353093F8263097F827209A42E6D3BB695B6813
S2144035401846364B98470246FB691B689A4256D146
S2144035507968F869324B98470346002B51D1314B76
S2144035605B78002B4FD0304B5B68FB75FB7D052BA3
S2144035701AD1FB691B7B012B06D1386A2B4B984727
S214403580386A2B4B98473FE0FB691B7B032B07D0E1
S214403590FB691B7B042B03D0FB691B7B052B33D1BC
S2144035A0386A244B98472FE0FB7D062B13D1FB69E6
S2144035B01B7B032B0BD0FB691B7B012B07D0FB69C6
S2144035C01B7B042B03D0FB691B7B052B03D1386A7E
S2144035D0194B984718E0FB7D022B15D1FB691B7BE6
S2144035E0062B11D1FB6900225A83386A134B984741
S2144035F00AE000BF08E000BF06E000BF04E000BFEE
S21440360002E000BF00E000BFFB6900229A607868D5
S2144036100B4B984700BF2837BD4680BD1920400059
S214403620B13040003839402044394020D124400051
S214403630952040002529400035204000FD204000D0
S214403640815B400090B587B000AFF860B960134624
S214403650FB71FB68002B00D1FEE7BB68002B00D156
S214403660FEE700224FF49A7100207D4B98470246B1
S214403670BB681A61BB681B69002B02D14FF0FF3351
S214403680E9E0BB685B7B002B04D1764B1B680133BB
S214403690744A1360734B1A68BB681A60BB681B6930
S2144036A05A68BB685A61BB685B6901221A70BB687E
S2144036B05B6901225A70BB685B69FA6892F82620FB
S2144036C09A70BB685B690022DA70BB685C69BB684D
S2144036D01B681846644B984703466360BB685B6943
S2144036E000221A7200225A72BB685B6900229A72E4
S2144036F00022DA72BB685B6900221A7300225A7392
S21440370000229A730022DA73FB79082B0DD0FB79DE
S214403710042B0AD0FB79032B0CD1BB681B7B052BF3
S21440372003D0BB681B7B042B04D1BB685B69FA687B
S2144037305268DA60BB685B6900221A7400225A74C9
S21440374000229A740022DA74BB685B6900221A75FC
S21440375000225A7500229A750022DA75BB685B69AA
S21440376000221A7600225A7600229A760022DA76CC
S2144037700023FB8216E0BB685A69FB8AF96891F819
S214403780261089B2F88A884205D2F98AF868014438
S21440379091F8271000E0002113440A461A77FB8A66
S2144037A00133FB82FB8A0F2BE5D90023FB8209E01D
S2144037B0BB685A69FB8A1344002283F82C20FB8A94
S2144037C00133FB82FB8A3F2BF2D90023FB8209E0C0
S2144037D0BB685A69FB8A1344002283F86C20FB8A34
S2144037E00133FB82FB8A7F2BF2D9BB685B690022E0
S2144037F042F0630283F8EC20002262F07D0283F8F8
S214403800ED20002242F0530283F8EE20002242F0E0
S214403810630283F8EF20BB6800221A830023FB82F2
S2144038200BE0BB685A69FB8AF98AC9B213440A4658
S21440383083F8F020FB8A0133FB82FB8A432BF0D9C6
S21440384001223521B868094B9847FB791946B86874
S214403850074B9847002318461C37BD4690BD00BF0F
S214403860DD57400008004020E51F40004D2F400037
S214403870992F400080B582B000AF78607B68002BFF
S21440388000D1FEE77B681B69002B04D07B681B6970
S2144038901846064B98477B6800221A617B680022D0
S2144038A05A6100BF0837BD4680BD00BF815B4000FF
S2144038B080B483B000AF78607B68002B00D1FEE711
S2144038C07B685A697B681B8B591C88B27968088369
S2144038D01344FF2283F8F0200BE07B685A697B682C
S2144038E01B8B591C88B2796808831344002283F8DE
S2144038F0F0207B681B8B432B05D97B681B8B03F022
S2144039000303002B03D07B681B8B432BE5D900BFFA
S2144039100C37BD465DF8047B7047000090B58DB00F
S21440392004AF786039607B685B68FB61FB691B7835
S2144039309BB203F00F039BB29B009BB2FB82FB8AB9
S2144039405B429BB21BB219467868744B9847034655
S214403950002B40F0CE807B681B89032B40F2C98049
S2144039607B685B681B787B757B7D002B00F0B9809D
S214403970082B40F0B9800123BB61694B1B6803F0FC
S214403980F003E02B01D10023BB61654B1B6839680F
S2144039901846644B98470346002B01D00023BB6172
S2144039A0BB69002B03D178685F4B9847B2E07B68D1
S2144039B01B89072B40F29C8078685C4B98470346EF
S2144039C0002B03D07868584B9847A3E022217868AC
S2144039D0524B98470346002B2FD0B7F9163019465E
S2144039E078684E4B98470346002B40F086807B68AD
S2144039F01B890022194602204D4B984738613B6987
S214403A00002B7CD0796838694A4B98470346002B90
S214403A1077D13B695B68FB61FB8A5B429BB21BB21A
S214403A20194638693D4B98470346002B6BD178685A
S214403A303D4B98473B697B6007E06FF02101786813
S214403A40364B98470346002B5FD17B685B68FB602C
S214403A50334B1A68FB69DA60374B1A68FB691A61A0
S214403A60FB6800221A70FB685B889BB24FF6F672C2
S214403A70934207D9FB685B889BB209339AB2FB68CE
S214403A805A8006E0FB685B889BB208339AB2FB68B4
S214403A905A80FB69FF221A72FB6900229A72002242
S214403AA0DA721421F869254B984703461A46FB6993
S214403AB05A81B7F9163019467868184B9847034626
S214403AC0002B10D13B6802930123019300230093FF
S214403AD0FF23002212497868194CA0470346FB7220
S214403AE001E000BF00E000BF78680F4B984711E048
S214403AF000BF78680C4B98470CE000BF06E000BF5C
S214403B0004E000BF02E000BF00E000BF7868064B5C
S214403B10984700BF2437BD4690BD00BFA55A400019
S214403B2074394020D1434000815B4000453E400010
S214403B30DD574000ED5C40006C3940201D3E4000A3
S214403B40C941400080B582B000AF78600B46FB703C
S214403B50FB781A4603217868024B984700BF08371F
S214403B60BD4680BD8D3B400080B582B000AF7860DA
S214403B700B46FB70FB781A460B217868024B984739
S214403B8000BF0837BD4680BD8D3B400090B589B02C
S214403B9002AF78600B46FB701346BB7000222421B0
S214403BA00120254B984778617B69002B40D07B6885
S214403BB05B683B617B695B68FB60FB68FA781A7000
S214403BC0FB68BA785A70FB6800221A7100225A7154
S214403BD0FB6800229A710022DA717B695B6803F108
S214403BE008007B685B681C221946144B9847FB68A4
S214403BF000229A700022DA707B695B891946F86861
S214403C000F4B984703461A46FB685A803B69DB6869
S214403C10BB6007F108020123019300230093FF23B2
S214403C2000217869074CA0477869074B984700E021
S214403C3000BF1C37BD4690BDDD57400079CD4000E3
S214403C401D3E40007D434000815B400080B489B00B
S214403C5000AF786039607B68FB610023FB810023FE
S214403C607B61FB6903F001033B613B69002B0DD090
S214403C703B68002B0ADD07F10E030133FA69511C3D
S214403C80F96112781A703B68013B3B60FB69BB6187
S214403C900AE0BB699A1CBA611B881A467B691344C2
S214403CA07B613B68023B3B603B68012BF1DC3B6839
S214403CB0002B04DD07F10E03BA6912781A70FB89EF
S214403CC01A467B6913447B617B691A0C7B699BB2FD
S214403CD013447B617B691A0C7B699BB213447B61FE
S214403CE03B69002B07D07B691B029AB27B691B0A93
S214403CF0DBB213437B617B699BB218462437BD46D3
S214403D005DF8047B7047000080B588B000AFF8606F
S214403D10B9607A60FB700023FB610023FB75FB688B
S214403D20BB6128E0BB695A68BB695B891946104687
S214403D30384B984703461A46FB691344FB61FB69B8
S214403D401A0CFB699BB21344FB61BB695B8903F0A9
S214403D5001039BB2002B0BD0FB7DC3F10103FB7527
S214403D60FB691B029AB2FB691B0ADBB21343FB6179
S214403D70BB691B68BB61BB69002BD3D1FB7D002BA5
S214403D8007D0FB691B029AB2FB691B0ADBB21343DE
S214403D90FB61BB681B683B613B699BB2FA69134495
S214403DA0FB613B691B0CFA691344FB617B681B682B
S214403DB03B613B699BB2FA691344FB613B691B0C50
S214403DC0FA691344FB61FB789BB21846124B98473E
S214403DD003461A46FB691344FB613B8D18460E4B5F
S214403DE0984703461A46FB691344FB61FB691A0C65
S214403DF0FB699BB21344FB61FB691A0CFB699BB2DF
S214403E001344FB61FB699BB2DB439BB218462037E9
S214403E10BD4680BD4D3C4000991F400080B582B0F5
S214403E2000AF78600B467B807B8819467868044BE9
S214403E3098470346DB439BB218460837BD4680BDCD
S214403E404D3C400080B586B000AF786000237B6173
S214403E500023FB737B683B6128E03B695A683B69FB
S214403E605B89194610461C4B984703461A467B69A1
S214403E7013447B617B691A0C7B699BB213447B615C
S214403E803B695B8903F001039BB2002B0BD0FB7BA5
S214403E90C3F10103FB737B691B029AB27B691B0A61
S214403EA0DBB213437B613B691B683B613B69002B7C
S214403EB0D3D1FB7B002B07D07B691B029AB27B6970
S214403EC01B0ADBB213437B617B699BB2DB439BB22D
S214403ED018461837BD4680BD4D3C400080B485B07E
S214403EE000AF7860194B1B68FB6015E0FB6893F8E1
S214403EF02D3003F00103002B0BD07B681A68FB685B
S214403F005B685A40FB689B681340002B01D1FB68F6
S214403F1015E0FB681B68FB60FB68002BE6D10C4B8A
S214403F201B68002B07D00A4B1B6893F82D3003F014
S214403F300103002B01D1002301E0054B1B68184606
S214403F401437BD465DF8047B704700BF904940205B
S214403F509449402080B588B000AF7860396001232E
S214403F607B617B685B68FB61FB691B781B09DBB286
S214403F70042B04D07868854B9847002302E1FB6900
S214403F801B789BB203F00F03FB81FB899B00FB81F0
S214403F90FB695B889BB218467D4B98470346BB81BE
S214403FA07B685B89FA899A4204D87B681B89BA8900
S214403FB09A4204D97868754B98470023E2E0FB891B
S214403FC01946F869734B98470346002B04D0786827
S214403FD06E4B98470023D5E0BB89194678686E4BF0
S214403FE09847FB691B696D4A1360FB69DB686C4A3E
S214403FF0136001233B613B68BB61BB6993F82D307E
S21440400003F00103002B16D0BB690433002B12D0FB
S214404010BB695B68002B0ED0604B1A68BB695B6857
S2144040209A421ED05D4B1B68B96918465D4B98474F
S2144040300346002B15D13B69002B05D000233B617E
S214404040594B1B68BB6102E0BB691B68BB61BA6920
S2144040503B689A4202D1BB691B68BB61BB69002BB7
S214404060CBD1BB69002B11D1FB695B7A112B0DD1EB
S214404070FB89FA691344BB60BB685B889BB2B3F5A7
S214404080884F03D13B68BB6100237B617B69002B73
S21440409017D0434B1B68002B13D0414B1B68396825
S2144040A01846404B98470346002B05D13C4B1B68AF
S2144040B003F0F003E02B04D17868344B9847002394
S2144040C060E0BB69002B04D17868304B98470023EA
S2144040D058E0FB69DB889BB21A464FF63F731340A5
S2144040E0002B0BD07868314B984778607B68002B64
S2144040F001D1002346E07B685B68FB612C4A3B6845
S21440410013602C4AFB691360FB695B7A062B09D067
S214404110112B02D0012B0AD00EE039687868264B66
S214404120984722E039687868244B98471DE03968FC
S2144041307868234B984718E0184B1B683968184630
S214404140184B98470346002B0CD1144B1B6803F0C2
S214404150F003E02B06D07B68FA695A600221786843
S214404160184B98477868094B9847114B00221A60BD
S214404170104B00221A600A4B00221A60074B00229E
S2144041801A60002318462037BD4680BD815B40003C
S214404190C51F40001D3E4000E9594000743940208C
S2144041A06C394020D143400090494020ED484000C3
S2144041B070394020783940208DA74000B1734000C8
S2144041C01D394000453B400080B588B000AFF860E0
S2144041D0B9607A60FB700023FB617B68002B00F0BF
S2144041E0A08014237B831421F868604B98470346CD
S2144041F0002B02D06FF00103B4E0FB685B687B6184
S2144042007B69FA781A727B6997F82C205A7297F86D
S2144042102C301A02FB7813431A46FB691344FB61A1
S2144042207B681A687B691A617B691B699BB2FA696D
S2144042301344FB617B691B691B0CFA691344FB61E1
S2144042407B8B9B089BB2DBB243F04003DAB27B69C0
S2144042501A707B6997F828205A7097F828301B0206
S2144042607A69127813431A46FB691344FB61FB686C
S2144042701B8918463E4B984703461A467B695A8028
S2144042807B695B889BB21A46FB691344FB617B697A
S21440429000229A710022DA71364B1B881846344B3E
S2144042A0984703461A467B699A807B699B889BB2EF
S2144042B01A46FB691344FB612E4B1B8801339AB2A6
S2144042C02C4B1A80BB68002B03D0BB681B68002BA6
S2144042D004D13B6B5A687B69DA6003E0BB681A68B6
S2144042E07B69DA607B69DB689BB2FA691344FB61E1
S2144042F07B69DB681B0CFA691344FB61FB691A0C8B
S214404300FB699BB21344FB61FB691B0CFA691344BF
S214404310FB61FB69DB43FB61FB699AB27B695A81AF
S21440432008E0FB685B687B617B691B693B6107F162
S21440433010037B603B6B9B8C002B0CD0FB681A8970
S2144043403B6B9B8C9A4206D97A68396BF8680A4B65
S2144043509847034606E03B6B5B697A68F968386BBA
S2144043609847034618462037BD4680BDA55A4000AC
S214404370991F4000A80A4020614B400090B58BB082
S21440438004AFF860B9607A60FB7078680E4B984767
S21440439078617B69002B02D16FF003030FE0FA7857
S2144043A07B69029397F82C30019397F82830009356
S2144043B013467A68B968F868044CA047034618461E
S2144043C01C37BD4690BD00BFDD3E4000C9414000A1
S2144043D080B485B000AF786039607B68FB607B68EE
S2144043E0B3F1FF3F02D07B68002B01D1012325E0CB
S2144043F03B6893F82D3003F00203002B01D10023D5
S2144044001CE03B685A687B689A4201D1002315E05D
S214404410FA683B685B685A403B689B681340002BD1
S2144044200BD13B689B68DA437B681A403B689B68C5
S214404430DB439A4201D1012300E00023184614379B
S214404440BD465DF8047B704780B584B000AF00235E
S214404450BB60124B1B68FB6018E0FB68DB7F002BE1
S2144044600BD0FB68DB7F013BDAB2FB68DA77FB6890
S214404470BB60FB681B68FB6008E0FB687B60FB6812
S2144044801B68FB60B9687868054B9847FB68002B4B
S214404490E3D100BF1037BD4680BD00BFAC0A402008
S2144044A0A544400080B588B000AF786039600023EE
S2144044B0FB837B685B685B687B617B699B889BB2A0
S2144044C0002B1FD17B685B68BB617B691A687B6881
S2144044D05A60BB6958687B680833142219461F4BDC
S2144044E098470121B8691E4B9847B8691D4B9847B5
S2144044F00346FB74FB7C9AB2FB8B1344FB83B86980
S214404500194B98477B685B68BB6114E0BB695B6886
S2144045107B61BB69FB607B691B68BB61F868114BBC
S21440452098470346FB74FB7C9AB2FB8B1344FB8391
S214404530F8680D4B9847BB69002BE7D13968786817
S2144045400A4B98470A4B1A88FB8BD31A9AB2084BE9
S2144045501A80FB8B18462037BD4680BD79CD40007B
S214404560693B4000115C4000815B4000B54640001E
S214404570B00A402080B588B000AF7860396000232C
S2144045803B610023BB6100237B610023FB60264B1D
S2144045901B68FB612CE0FB695A697B68DB689A42C2
S2144045A00CD1FB699A697B681B699A4206D1FB6904
S2144045B09A897B689B889BB29A4210D0FB680133ED
S2144045C0FB60BB69002B02D1FB69BB6107E0FB695E
S2144045D0DA7FBB69DB7F9A4201D8FB69BB61FB6926
S2144045E01B68002B01D0FB697B61FB691B68FB6184
S2144045F0FB69002BCFD1BB69002B08D07969B8691D
S2144046000A4B9847B8603A69BB6813443B613A69BD
S2144046103B689A4202DAFB68012BB2DC3B691846DB
S2144046202037BD4680BD00BFAC0A4020A5444000B0
S21440463080B584B000AF786039600420184B984746
S214404640F860FB68002B10D139687868154B98479E
S21440465002463B689A4203DB0420114B9847F860B9
S214404660FB68002B01D1002316E020220021F868C9
S2144046700D4B9847FB680322DA770C4B1A68FB68A9
S2144046801A600A4AFB681360FB680833142279688C
S2144046901846074B9847FB6818461037BD4680BDFE
S2144046A0A554400075454000ADCE4000AC0A4020C1
S2144046B079CD400080B582B000AF786039600B4B52
S2144046C01A687B689A4204D17B681B68074A136065
S2144046D003E07B681A683B681A6079680420044BDC
S2144046E0984700BF0837BD4680BD00BFAC0A402093
S2144046F0E554400080B58AB000AF7860396000234A
S2144047007B620123FB613B685B68BB61BB695B887E
S2144047109BB21846714B984703461A46BB691B78AE
S2144047209BB203F00F039BB29B009BB2D31AFB8253
S214404730BB69DB889BB21846684B98470346C3F371
S2144047400C039BB2DB00BB823B685B683B613B690A
S21440475000221A7000225A7000229A700022DA70E4
S2144047603B69BA8A9A80BA8AFB8A13449AB23B69F2
S214404770DA807B685B683B624BE03B6A5B68FB6069
S2144047803B699B889AB2FB689B889BB29A421ED232
S2144047903B693A6A1A607B6A002B14D03B699B8857
S2144047A09AB27B6ADB889BB29A42C0F082803B69B1
S2144047B0DB889AB2FB689B889BB29A4279D87B6A20
S2144047C03A681A6028E07B683A685A6024E03B6999
S2144047D09B889AB2FB689B889BB29A4266D03B699C
S2144047E09B889AB2FB68DB889BB29A4260D37B6A0E
S2144047F0002B09D07B6ADB889AB2FB689B889BB209
S2144048009A4201D00023FB61FB681B683B62FB6851
S2144048107B623B6A002BB0D13B6A002B13D17B6A8C
S214404820002B0DD07B6A3A681A607B6ADB889AB2A6
S2144048303B699B889BB29A4205D00023FB6102E00D
S2144048407B683A685A607B689B7F03F00103002BC5
S2144048502AD0FB69002B25D07B685B685B689B8809
S2144048609BB2002B02D00023FB611BE03B697B62BE
S2144048703B691B683B6212E03B6A5B683B617B6A54
S214404880DB889AB23B699B889BB29A4202D000234F
S214404890FB6107E03B697B623B691B683B623B6AA6
S2144048A0002BE9D1FB6914E0002312E000BF00E0D2
S2144048B000BF38680A4B984703461946094B1A8882
S2144048C08BB2D31A9AB2074B1A803868064B984771
S2144048D0002318462837BD4680BD00BFC51F400090
S2144048E0115C4000B00A4020815B400080B58AB031
S2144048F000AF78600023FB617B685B68BB61BB6987
S2144049001B7803F00F039B00142B40F00381BB6918
S214404910DB889BB21846844B98470346C3F30C0388
S2144049209BB2DB00FB82BB695B889BB218467E4B22
S214404930984703461A46BB691B789BB203F00F03A1
S2144049409BB29B009BB2D31ABB827868774B984742
S2144049500346FB74764B1B881A46FB7C13440A2B93
S21440496010DDFB7C1946B869724B98470346002B0E
S21440497000F0D1806E4B1B881A46FB7C13440A2BF2
S21440498000F3C9806C4B1B683B6217E03B6A5A6970
S214404990BB69DB689A420CD13B6A9A69BB691B6962
S2144049A09A4206D13B6A9A89BB699B889BB29A42D7
S2144049B008D03B6AFB613B6A1B683B623B6A002B44
S2144049C0E4D100E000BF3B6A002B09D1FB7C1946CE
S2144049D0B8695A4B984738623B6A002B1CD19AE01C
S2144049E0BB69DB889BB218464F4B98470346C3F3D8
S2144049F00C03002B10D13B6ADB8918464A4B98477C
S214404A000346C3F30C03002B06D03B6A083314223C
S214404A10B96918464A4B9847FB7C9AB2444B1B8868
S214404A2013449AB2424B1A80BB69DB889BB203F0B0
S214404A302003002B0CD13B6A9B7F43F00103DAB284
S214404A403B6A9A77FA8ABB8A13449AB23B6A9A833D
S214404A507968386A3B4B98470346002B58D03B6AE8
S214404A609B8B14339AB23B6A9A833B6A5B685B685B
S214404A701B687B623B6A5B685B68BB613B6A08336A
S214404A8014221946B8692E4B98473B6A9B8B1846AA
S214404A902D4B984703461A46BB695A80BB6900228D
S214404AA09A710022DA71BB6900229A720022DA7289
S214404AB01421B869254B984703461A46BB695A8164
S214404AC03B6A5B687B600EE07B6A5B68FB606FF00E
S214404AD01301786A1E4B9847796A78681D4B984749
S214404AE0FB681B687B627B6A002BEDD1F969386AEC
S214404AF0194B984778680D4B9847034619460C4B18
S214404B001A888BB2D31A9AB2094B1A807B6806E091
S214404B10002304E000BF7868104B984700231846EF
S214404B202837BD4680BD00BFC51F4000115C400011
S214404B30B00A402075454000AC0A4020314640004F
S214404B4079CD4000F5464000991F40001D3E40008C
S214404B50A55A4000655C4000B5464000815B400079
S214404B6090B58DB000AFF860B9607A60BB689B8C3A
S214404B70FB8414237B85FB685B683B623B6AFB6176
S214404B80FB69DB889BB21846504B984703463B85EB
S214404B903B8DC3F30C03BB853B8D03F400537B83F3
S214404BA0FB681B89143BFB85FB8C143B002B00DA0F
S214404BB00733DB103B837FE0FA8DFB8C143B9A4235
S214404BC0D4BF01230023DBB2FB82BB8DC3F30C03AF
S214404BD09AB27B8B13433B85FB8A002B03D13B8DDC
S214404BE043F400533B85FB8A002B03D13B8BDB0011
S214404BF09BB200E0FB8DBB82BB8A00221946012097
S214404C00334B984738613B69002B02D14FF0FF3356
S214404C1057E03B6959687B8DBA8AF8682D4CA047A7
S214404C2003461A467B8D13447B85142138692A4BEC
S214404C3098470346002B05D03869284B98474FF0D5
S214404C40FF333EE03B695B681422396A1846244BC2
S214404C5098473B695B68FB613B8D1846214B9847FC
S214404C6003461A46FB69DA80BB8A14339BB2184661
S214404C701C4B984703461A46FB695A80FB6900223C
S214404C809A720022DA721421F869174B9847034645
S214404C901A46FB695A81BB685B697A683969B868A5
S214404CA0984738690D4B9847FA8DBB8AD31AFB85CF
S214404CB0BA8D3B8B1344BB85FB8D002B7FF47CAFBA
S214404CC0002318463437BD4690BD00BFC51F400080
S214404CD0DD574000F15D4000A55A4000815B400032
S214404CE079CD4000991F40001D3E400080B500AF82
S214404CF0064B9847064B9847064B9847064B9847AF
S214404D00064B9847064B984700BF80BD6D50400005
S214404D1009544000255540000DA74000B95E4000AC
S214404D20694E400080B582B000AF78600B4B984724
S214404D300B4B1B68002B03D10A4B1B68002B05D07E
S214404D4000220949FA20094B984702E0084B002206
S214404D501A6000BF0837BD4680BD00BFC95E400030
S214404D60A0494020B4494020254D4000C94E40004F
S214404D70BC0A402080B500AF0A4B1B68002B0FD101
S214404D80094B1B68002B03D1084B1B68002B07D030
S214404D90044B01221A6000220549FA20054B984729
S214404DA000BF80BDBC0A4020A0494020B4494020F6
S214404DB0254D4000C94E400080B582B000AF7860B7
S214404DC0054B9847002205494FF47A70044B9847A4
S214404DD000BF0837BD4680BD49444000B94D40003D
S214404DE0C94E400080B582B000AF7860054B98470A
S214404DF00022054941F28830044B984700BF0837E7
S214404E00BD4680BD61AE4000E54D4000C94E400005
S214404E1080B582B000AF7860054B984700220549C0
S214404E204EF66020044B984700BF0837BD4680BD0D
S214404E30AD224000114E4000C94E400080B582B0C1
S214404E4000AF7860054B9847002205494FF4FA704A
S214404E50044B984700BF0837BD4680BD112340002D
S214404E603D4E4000C94E400080B500AF00220F497D
S214404E704FF47A700E4B984700220E4941F2883024
S214404E800B4B984700220C494EF66020084B98473B
S214404E9000220A494FF4FA70054B9847084B98474A
S214404EA00246084B1A6000BF80BD00BFB94D4000A7
S214404EB0C94E4000E54D4000114E40003D4E40007A
S214404EC0FDC94000B80A402080B586B000AFF86003
S214404ED0B9607A600520334B984738613B69002BB0
S214404EE05BD03B6900221A603B69BA689A603B69AE
S214404EF07A68DA603B69FA685A602B4B1B68002B6D
S214404F0003D1294A3B69136048E0274B1B685A681F
S214404F10FB689A420FD9244B1B68234A1268516893
S214404F20FA688A1A5A60204B1A683B691A601E4A09
S214404F303B69136032E01C4B1B687B6129E03B6990
S214404F405A687B695B68D21A3B695A607B691B6802
S214404F50002B06D07B691B685A683B695B689A429F
S214404F6014D97B691B68002B08D07B691B687A695B
S214404F70126851683A6952688A1A5A607B691A6898
S214404F803B691A607B693A691A6007E07B691B686F
S214404F907B617B69002BD2D100E000BF1837BD464D
S214404FA080BD00BFA5544000B40A402080B485B000
S214404FB000AF78602A4B1B687A6812881344FB60FF
S214404FC07A68FB689A421FD0FB681B79002B1BD17E
S214404FD0244B1B68FA689A4216D0234B1A68FB6823
S214404FE09A4202D1204A7B681360FB681A887B6825
S214404FF01A801B4B1B68FA68128813447A68184953
S2144050000968521A92B25A80154B1B687A685288C1
S2144050101344BB60BA687B689A421AD0BB681B7957
S214405020002B16D1104B1A687B689A4202D10E4A62
S214405030BB6813607B681A88BB681A80084B1B687D
S2144050407A6812881344BA6805490968521A92B2B7
S2144050505A8000BF1437BD465DF8047B704700BFDA
S214405060C00A4020C40A4020C80A402080B483B00A
S21440507000AF194B033323F003031A46174B1A604D
S214405080164B1B687B607B684FF480521A807B68A7
S21440509000225A807B6800221A71104B1B6803F569
S2144050A080530F4A13600E4B1B6801221A710C4B3B
S2144050B01B684FF480521A80094B1B684FF480528D
S2144050C05A80064B1B68074A136000BF0C37BD4624
S2144050D05DF8047B704700BF7C394020C00A402002
S2144050E0C40A4020C80A402080B584B000AF78602B
S2144050F07B68002B1BD0114B1B687A689A4218D3EA
S2144051000F4B1B687A689A4213D27B68083BFB6059
S214405110FB6800221A710B4B1B68FA689A4202D24F
S214405120084AFB681360F868074B984702E000BFE0
S21440513000E000BF1037BD4680BD00BFC00A40201B
S214405140C40A4020C80A4020AD4F400080B487B013
S21440515000AF78600B467B807B8803339BB223F09E
S21440516003037B807B880B2B01D80C237B807B88BA
S214405170B3F5805F01D9002395E04E4B1B687A68F3
S2144051809A4204D34C4B1B687A689A4201D37B6898
S21440519089E07B68083B7B617B69464A12689B1ABC
S2144051A07B827B691A887B8AD31A9BB2083B3B82F8
S2144051B07A883B8A9A4201D9002374E07A883B8AEF
S2144051C09A4201D17B686EE03A4B1B687A69128836
S2144051D01344FB60FB681B79002B31D1FB681B88AE
S2144051E07B817A8A7B8813449BB208333B81334B5E
S2144051F01A68FB689A4205D12E4B1A683B891344BD
S2144052002E4A13602B4B1A683B891344FB60FB689D
S21440521000221A71FB687A891A80FB687A8A5A805B
S2144052207B693A891A80FB681B88B3F5805F39D062
S214405230204B1B68FA68128813443A895A8031E03A
S2144052407B8803F114023B8A9A422BD87A8A7B8861
S21440525013449BB208333B81164B1A683B89134470
S214405260FB60164B1B68FA689A4202D2134AFB68E8
S2144052701360FB6800221A717B691A88FB681A80E3
S214405280FB687A8A5A807B693A891A80FB681B8851
S214405290B3F5805F06D0074B1B68FA681288134444
S2144052A03A895A807B6818461C37BD465DF8047BB1
S2144052B0704700BFC00A4020C40A4020C80A4020A9
S2144052C080B489B000AF0346FB80FB88002B01D139
S2144052D000238CE0FB8803339BB223F00303FB8060
S2144052E0FB880B2B01D80C23FB80FB88B3F5805F33
S2144052F001D900237BE0414B1B681A46404B1B6894
S214405300D31AFB836CE03E4B1A68FB8B13447B61DD
S2144053107B691B79002B5DD17B691B881A46FB8B0A
S214405320D31AA3F10802FB889A4253D37B691B88A1
S2144053301A46FB8BD31AA3F10802FB8814339A4211
S21440534027D3FA8BFB8813449BB208337B822C4BC3
S2144053501A687B8A1344FB60FB6800221A717B69DB
S2144053601A88FB681A80FB68FA8B5A807B697A8AAF
S2144053701A807B6901221A71FB681B88B3F5805F2F
S2144053800AD01F4B1B68FA68128813447A8A5A80E0
S21440539002E07B6901221A71184B1B687A699A42AF
S2144053A015D1164B1B68BB6105E0154B1B68BA69E7
S2144053B012881344BB61BB691B79002B04D0114B88
S2144053C01B68BA699A42F0D10C4ABB6913607B6984
S2144053D008330CE00A4B1A68FB8B13441B88FB838C
S2144053E0FA8BFB88C3F580539A428CDB0023184621
S2144053F02437BD465DF8047B704700BFC80A40208E
S214405400C00A4020C40A402080B483B000AF0023C6
S2144054107B8002E07B8801337B807B88072BF9D931
S2144054201C4B033323F003037B6000237B8027E081
S2144054307B88194A002142F8231000233B8015E060
S2144054407B88154A52F823207B681A607B8812496D
S2144054507A6841F823207B88104A32F813301A467F
S2144054607B6813447B603B8801333B807B880C4AD7
S21440547032F813303A889A42E2D37B8801337B80F5
S2144054807B88072BD4D900BF0C37BD465DF8047B1C
S214405490704700BFEC0A4020CC0A4020FCFA40008F
S2144054A00CFB400080B485B000AF0346FB71FB792F
S2144054B0072B00D9FEE7FB79094A52F82330FB60F8
S2144054C0FB68002B05D0FB79FA681268044941F85E
S2144054D02320FB6818461437BD465DF8047B7047AA
S2144054E0CC0A402080B485B000AF03463960FB71DB
S2144054F03B68002B0DD03B68FB60FB79084A52F8AE
S2144055002320FB681A60FB790549FA6841F8232096
S21440551000E000BF1437BD465DF8047B704700BF0F
S214405520CC0A402080B400AF00BFBD465DF8047B87
S2144055307047000090B585B000AFF860B9607A60FB
S2144055403B60FB6800225A60FB6800229A60FB685A
S2144055500022DA60FB68002283F82D20FB680022D8
S2144055601A62FB683A6ADA61124B1B785A1CD1B24F
S214405570104A1170FA6882F83030FB68BA6A1A61CD
S2144055803B687A68B968F8680B4CA0477B6AF8684D
S21440559098470346002B01D0002307E0074B1A68C4
S2144055A0FB681A60054AFB681360FB6818461437A8
S2144055B0BD4690BDCB254020C15540009049402077
S2144055C080B584B000AFF860B9607A603B60B96877
S2144055D0F868074B98477968F868064B98473968E3
S2144055E0F868054B984700BF1037BD4680BD00BFE2
S2144055F0FD554000D9564000B156400080B586B0B3
S21440560000AF786039603B68002B3ED03B681A6834
S2144056107B685B689A4238D0224B1B687B6111E0FE
S2144056207B691A687B685B689A4208D17B69DB684D
S214405630FB6078691C4B9847FB687B6102E07B699E
S214405640DB687B617B69002BEAD1184B1B683B61AA
S21440565018E03B69002B12D03B691B68002B0ED02C
S2144056603B691A687B685B689A4208D13B68002BA6
S21440567002D03B681B6800E000233A6913603B6930
S214405680DB683B613B69002BE3D13B68002B02D0D3
S2144056903B681B6800E000237A68536000BF1837F9
S2144056A0BD4680BDA049402085624000A8494020B4
S2144056B080B483B000AF786039603B68002B02D07E
S2144056C03B681B6800E000237A68D36000BF0C3755
S2144056D0BD465DF8047B704780B483B000AF786009
S2144056E039603B68002B02D03B681B6800E0002313
S2144056F07A68936000BF0C37BD465DF8047B704700
S21440570080B483B000AF7860044A7B68136000BF03
S2144057100C37BD465DF8047B704700BF9449402077
S21440572080B582B000AF78607B6893F82D3003F088
S2144057300103002B1CD17B6893F82D3043F0010306
S214405740DAB27B6883F82D207B6893F82D3003F01F
S2144057501003002B0CD07B6893F82D3003F0200309
S214405760002B05D07B68043319467868024B98476F
S21440577000BF0837BD4680BDFDB9400080B582B049
S21440578000AF78607B6893F82D3003F00103002B60
S21440579012D07B6893F82D3023F00103DAB27B6891
S2144057A083F82D207B6893F82D3003F02003002BE0
S2144057B002D07868024B984700BF0837BD4680BD88
S2144057C0BDB2400080B400AF034B01221A7000BF48
S2144057D0BD465DF8047B70479849402080B588B048
S2144057E000AF0346FB710B46BB801346BB71FB798B
S2144057F0032B17D801A252F823F000BF0D584000E3
S21440580013584000195840001F5840003623FB826A
S2144058100AE02223FB8207E00E23FB8204E00023FB
S214405820FB8201E00023D3E0BB79032B00F2C78064
S21440583001A252F823F000BF2D5940008B5940007A
S2144058408B594000495840000720634B9847F86101
S214405850FB69002B03D1614B98470023B8E0FB69F6
S214405860BA791A73FB6900221A60FB8A1033FA6908
S2144058701344033323F003031A46FB695A60FB695B
S214405880BA881A81FB8A033323F00303C3F5C06248
S214405890BB889342A8BF13469AB2FB695A81FB69FC
S2144058A00122DA81FB69BB61BB88FA6952899B1A7F
S2144058B03B6137E00720484B9847F860FB68002B71
